{
  "contractName": "AllOrNothingSlotmachine",
  "abi": [
    {
      "constant": false,
      "inputs": [],
      "name": "hold",
      "outputs": [],
      "payable": false,
      "stateMutability": "nonpayable",
      "type": "function"
    },
    {
      "constant": true,
      "inputs": [
        {
          "name": "addr",
          "type": "address"
        },
        {
          "name": "roleName",
          "type": "string"
        }
      ],
      "name": "checkRole",
      "outputs": [],
      "payable": false,
      "stateMutability": "view",
      "type": "function"
    },
    {
      "constant": false,
      "inputs": [
        {
          "name": "_tokenAddress",
          "type": "address"
        }
      ],
      "name": "setToken",
      "outputs": [],
      "payable": false,
      "stateMutability": "nonpayable",
      "type": "function"
    },
    {
      "constant": true,
      "inputs": [
        {
          "name": "addr",
          "type": "address"
        },
        {
          "name": "roleName",
          "type": "string"
        }
      ],
      "name": "hasRole",
      "outputs": [
        {
          "name": "",
          "type": "bool"
        }
      ],
      "payable": false,
      "stateMutability": "view",
      "type": "function"
    },
    {
      "constant": true,
      "inputs": [],
      "name": "possibilities",
      "outputs": [
        {
          "name": "",
          "type": "uint256"
        }
      ],
      "payable": false,
      "stateMutability": "view",
      "type": "function"
    },
    {
      "constant": true,
      "inputs": [],
      "name": "available",
      "outputs": [
        {
          "name": "",
          "type": "bool"
        }
      ],
      "payable": false,
      "stateMutability": "view",
      "type": "function"
    },
    {
      "constant": true,
      "inputs": [],
      "name": "ROLE_SUPERVISER",
      "outputs": [
        {
          "name": "",
          "type": "string"
        }
      ],
      "payable": false,
      "stateMutability": "view",
      "type": "function"
    },
    {
      "constant": false,
      "inputs": [],
      "name": "release",
      "outputs": [],
      "payable": false,
      "stateMutability": "nonpayable",
      "type": "function"
    },
    {
      "constant": true,
      "inputs": [],
      "name": "price",
      "outputs": [
        {
          "name": "",
          "type": "uint256"
        }
      ],
      "payable": false,
      "stateMutability": "view",
      "type": "function"
    },
    {
      "constant": true,
      "inputs": [],
      "name": "deposit",
      "outputs": [
        {
          "name": "",
          "type": "uint256"
        }
      ],
      "payable": false,
      "stateMutability": "view",
      "type": "function"
    },
    {
      "constant": true,
      "inputs": [],
      "name": "prize",
      "outputs": [
        {
          "name": "",
          "type": "uint256"
        }
      ],
      "payable": false,
      "stateMutability": "view",
      "type": "function"
    },
    {
      "inputs": [
        {
          "name": "_prize",
          "type": "uint256"
        },
        {
          "name": "_price",
          "type": "uint256"
        },
        {
          "name": "_deposit",
          "type": "uint256"
        },
        {
          "name": "_possibilities",
          "type": "uint256"
        },
        {
          "name": "_tokenAddress",
          "type": "address"
        },
        {
          "name": "_targetBlockOffset",
          "type": "uint8"
        }
      ],
      "payable": false,
      "stateMutability": "nonpayable",
      "type": "constructor"
    },
    {
      "anonymous": false,
      "inputs": [
        {
          "indexed": false,
          "name": "addr",
          "type": "address"
        },
        {
          "indexed": false,
          "name": "roleName",
          "type": "string"
        }
      ],
      "name": "RoleAdded",
      "type": "event"
    },
    {
      "anonymous": false,
      "inputs": [
        {
          "indexed": false,
          "name": "addr",
          "type": "address"
        },
        {
          "indexed": false,
          "name": "roleName",
          "type": "string"
        }
      ],
      "name": "RoleRemoved",
      "type": "event"
    },
    {
      "constant": false,
      "inputs": [
        {
          "name": "_sender",
          "type": "address"
        },
        {
          "name": "_origin",
          "type": "address"
        },
        {
          "name": "_value",
          "type": "uint256"
        },
        {
          "name": "_data",
          "type": "bytes"
        }
      ],
      "name": "tokenFallback",
      "outputs": [
        {
          "name": "success",
          "type": "bool"
        }
      ],
      "payable": false,
      "stateMutability": "nonpayable",
      "type": "function"
    },
    {
      "constant": false,
      "inputs": [],
      "name": "pullTheLever",
      "outputs": [],
      "payable": false,
      "stateMutability": "nonpayable",
      "type": "function"
    },
    {
      "constant": false,
      "inputs": [],
      "name": "claim",
      "outputs": [],
      "payable": false,
      "stateMutability": "nonpayable",
      "type": "function"
    },
    {
      "constant": false,
      "inputs": [
        {
          "name": "_price",
          "type": "uint256"
        },
        {
          "name": "_prize",
          "type": "uint256"
        }
      ],
      "name": "setPrice",
      "outputs": [],
      "payable": false,
      "stateMutability": "nonpayable",
      "type": "function"
    },
    {
      "constant": false,
      "inputs": [
        {
          "name": "_deposit",
          "type": "uint256"
        }
      ],
      "name": "setDeposit",
      "outputs": [],
      "payable": false,
      "stateMutability": "nonpayable",
      "type": "function"
    },
    {
      "constant": false,
      "inputs": [
        {
          "name": "_possibilities",
          "type": "uint256"
        }
      ],
      "name": "setPossibilities",
      "outputs": [],
      "payable": false,
      "stateMutability": "nonpayable",
      "type": "function"
    },
    {
      "constant": false,
      "inputs": [
        {
          "name": "_targetBlockOffset",
          "type": "uint8"
        }
      ],
      "name": "setTargetBlockOffset",
      "outputs": [],
      "payable": false,
      "stateMutability": "nonpayable",
      "type": "function"
    }
  ],
  "bytecode": "0x60806040523480156200001157600080fd5b5060405160c0806200129183398101806040528101908080519060200190929190805190602001909291908051906020019092919080519060200190929190805190602001909291908051906020019092919050505081600073ffffffffffffffffffffffffffffffffffffffff168173ffffffffffffffffffffffffffffffffffffffff1614151515620000a557600080fd5b620000f5336040805190810160405280600a81526020017f7375706572766973657200000000000000000000000000000000000000000000815250620001d5640100000000026401000000009004565b6000600160146101000a81548160ff02191690831515021790555050856002111515156200012257600080fd5b85851015156200013157600080fd5b846001111515156200014257600080fd5b836000111515156200015357600080fd5b82600a111515156200016457600080fd5b8060ff16600360ff16111515156200017b57600080fd5b601460ff168160ff16111515156200019257600080fd5b8560048190555084600581905550836006819055508260078190555080600860006101000a81548160ff021916908360ff16021790555050505050505062000399565b62000264826000836040518082805190602001908083835b602083101515620002145780518252602082019150602081019050602083039250620001ed565b6001836020036101000a03801982511681845116808217855250505050505090500191505090815260200160405180910390206200033b6401000000000262000e5e179091906401000000009004565b7fbfec83d64eaa953f2708271a023ab9ee82057f8f3578d548c1a4ba0b5b7004898282604051808373ffffffffffffffffffffffffffffffffffffffff1673ffffffffffffffffffffffffffffffffffffffff16815260200180602001828103825283818151815260200191508051906020019080838360005b83811015620002fb578082015181840152602081019050620002de565b50505050905090810190601f168015620003295780820380516001836020036101000a031916815260200191505b50935050505060405180910390a15050565b60018260000160008373ffffffffffffffffffffffffffffffffffffffff1673ffffffffffffffffffffffffffffffffffffffff16815260200190815260200160002060006101000a81548160ff0219169083151502179055505050565b610ee880620003a96000396000f3006080604052600436106100fb576000357c0100000000000000000000000000000000000000000000000000000000900463ffffffff168062e0c53f146101005780630988ca8c146101175780630cb57804146101a0578063144fa6d7146101cd578063217fe6c614610210578063305727b4146102b1578063384b93f2146102dc57806348a0d754146102f35780634a70179a146103225780634c123019146103b25780634e71d92d1461047d57806386d1a69f146104945780639033d34e146104ab578063a035b1fe146104db578063d0e30db014610506578063e3ac5d2614610531578063f5bade661461055c578063f7d9757714610589575b600080fd5b34801561010c57600080fd5b506101156105c0565b005b34801561012357600080fd5b5061019e600480360381019080803573ffffffffffffffffffffffffffffffffffffffff169060200190929190803590602001908201803590602001908080601f0160208091040260200160405190810160405280939291908181526020018383808284378201915050505050509192919290505050610639565b005b3480156101ac57600080fd5b506101cb600480360381019080803590602001909291905050506106ba565b005b3480156101d957600080fd5b5061020e600480360381019080803573ffffffffffffffffffffffffffffffffffffffff169060200190929190505050610731565b005b34801561021c57600080fd5b50610297600480360381019080803573ffffffffffffffffffffffffffffffffffffffff169060200190929190803590602001908201803590602001908080601f016020809104026020016040519081016040528093929190818152602001838380828437820191505050505050919291929050505061080e565b604051808215151515815260200191505060405180910390f35b3480156102bd57600080fd5b506102c6610895565b6040518082815260200191505060405180910390f35b3480156102e857600080fd5b506102f161089b565b005b3480156102ff57600080fd5b5061030861090f565b604051808215151515815260200191505060405180910390f35b34801561032e57600080fd5b50610337610922565b6040518080602001828103825283818151815260200191508051906020019080838360005b8381101561037757808201518184015260208101905061035c565b50505050905090810190601f1680156103a45780820380516001836020036101000a031916815260200191505b509250505060405180910390f35b3480156103be57600080fd5b50610463600480360381019080803573ffffffffffffffffffffffffffffffffffffffff169060200190929190803573ffffffffffffffffffffffffffffffffffffffff16906020019092919080359060200190929190803590602001908201803590602001908080601f016020809104026020016040519081016040528093929190818152602001838380828437820191505050505050919291929050505061095b565b604051808215151515815260200191505060405180910390f35b34801561048957600080fd5b50610492610969565b005b3480156104a057600080fd5b506104a9610a28565b005b3480156104b757600080fd5b506104d9600480360381019080803560ff169060200190929190505050610aa1565b005b3480156104e757600080fd5b506104f0610b48565b6040518082815260200191505060405180910390f35b34801561051257600080fd5b5061051b610b4e565b6040518082815260200191505060405180910390f35b34801561053d57600080fd5b50610546610b54565b6040518082815260200191505060405180910390f35b34801561056857600080fd5b5061058760048036038101908080359060200190929190505050610b5a565b005b34801561059557600080fd5b506105be6004803603810190808035906020019092919080359060200190929190505050610bd1565b005b600160149054906101000a900460ff1615156105db57600080fd5b6040805190810160405280600a81526020017f737570657276697365720000000000000000000000000000000000000000000081525061061b3382610639565b6000600160146101000a81548160ff02191690831515021790555050565b6106b6826000836040518082805190602001908083835b6020831015156106755780518252602082019150602081019050602083039250610650565b6001836020036101000a0380198251168184511680821785525050505050509050019150509081526020016040518091039020610c6c90919063ffffffff16565b5050565b6040805190810160405280600a81526020017f73757065727669736572000000000000000000000000000000000000000000008152506106fa3382610639565b600160149054906101000a900460ff1615151561071657600080fd5b81600a1115151561072657600080fd5b816007819055505050565b600160149054906101000a900460ff1615151561074d57600080fd5b6040805190810160405280600a81526020017f737570657276697365720000000000000000000000000000000000000000000081525061078d3382610639565b600073ffffffffffffffffffffffffffffffffffffffff168273ffffffffffffffffffffffffffffffffffffffff16141515156107c957600080fd5b81600160006101000a81548173ffffffffffffffffffffffffffffffffffffffff021916908373ffffffffffffffffffffffffffffffffffffffff1602179055505050565b600061088d836000846040518082805190602001908083835b60208310151561084c5780518252602082019150602081019050602083039250610827565b6001836020036101000a0380198251168184511680821785525050505050509050019150509081526020016040518091039020610c8590919063ffffffff16565b905092915050565b60075481565b6000600160149054906101000a900460ff1615156108b857600080fd5b6007543273ffffffffffffffffffffffffffffffffffffffff168115156108db57fe5b06905061090c81610907600860009054906101000a900460ff1660ff1643610cde90919063ffffffff16565b610cfa565b50565b600160149054906101000a900460ff1681565b6040805190810160405280600a81526020017f737570657276697365720000000000000000000000000000000000000000000081525081565b600060019050949350505050565b6000600160149054906101000a900460ff16151561098657600080fd5b610991600754610d94565b9050801561099e5761099f565b5b600360003273ffffffffffffffffffffffffffffffffffffffff1673ffffffffffffffffffffffffffffffffffffffff16815260200190815260200160002060009055600260003273ffffffffffffffffffffffffffffffffffffffff1673ffffffffffffffffffffffffffffffffffffffff1681526020019081526020016000206000905550565b600160149054906101000a900460ff16151515610a4457600080fd5b6040805190810160405280600a81526020017f7375706572766973657200000000000000000000000000000000000000000000815250610a843382610639565b60018060146101000a81548160ff02191690831515021790555050565b6040805190810160405280600a81526020017f7375706572766973657200000000000000000000000000000000000000000000815250610ae13382610639565b600160149054906101000a900460ff16151515610afd57600080fd5b8160ff16600360ff1611151515610b1357600080fd5b601460ff168260ff1611151515610b2957600080fd5b81600860006101000a81548160ff021916908360ff1602179055505050565b60055481565b60065481565b60045481565b6040805190810160405280600a81526020017f7375706572766973657200000000000000000000000000000000000000000000815250610b9a3382610639565b600160149054906101000a900460ff16151515610bb657600080fd5b81600011151515610bc657600080fd5b816006819055505050565b6040805190810160405280600a81526020017f7375706572766973657200000000000000000000000000000000000000000000815250610c113382610639565b600160149054906101000a900460ff16151515610c2d57600080fd5b826001101515610c3c57600080fd5b816002101515610c4b57600080fd5b8183101515610c5957600080fd5b8260058190555081600481905550505050565b610c768282610c85565b1515610c8157600080fd5b5050565b60008260000160008373ffffffffffffffffffffffffffffffffffffffff1673ffffffffffffffffffffffffffffffffffffffff16815260200190815260200160002060009054906101000a900460ff16905092915050565b60008183019050828110151515610cf157fe5b80905092915050565b8043101515610d0857600080fd5b80600260003273ffffffffffffffffffffffffffffffffffffffff1673ffffffffffffffffffffffffffffffffffffffff1681526020019081526020016000208190555081600360003273ffffffffffffffffffffffffffffffffffffffff1673ffffffffffffffffffffffffffffffffffffffff168152602001908152602001600020819055505050565b6000610d9f82610de7565b600360003273ffffffffffffffffffffffffffffffffffffffff1673ffffffffffffffffffffffffffffffffffffffff16815260200190815260200160002054149050919050565b6000806000600260003273ffffffffffffffffffffffffffffffffffffffff1673ffffffffffffffffffffffffffffffffffffffff168152602001908152602001600020549150814310151515610e3d57600080fd5b83824060019004811515610e4d57fe5b069050600091508092505050919050565b60018260000160008373ffffffffffffffffffffffffffffffffffffffff1673ffffffffffffffffffffffffffffffffffffffff16815260200190815260200160002060006101000a81548160ff02191690831515021790555050505600a165627a7a723058204a42c426543eaa176bef9daaa48660540622b5fd05dd19704356469020ba6f0e0029",
  "source": "pragma solidity ^0.4.23;\n\nimport \"../random/SinglePlayerRandomness.sol\";\nimport \"./Game.sol\";\n\n/**\n * @title AllOrNothingSlotmachine\n * @author mariogastegger\n * @dev A slot machine where the chance of winning depends on the players address and a random number.\n */\ncontract AllOrNothingSlotmachine is Game, SinglePlayerRandomness, ERC223Receiver {\n\n    /*\n     * Fields.\n     */\n    /** @dev Duration[s]= duration[block] * 15[s/block] = 20 * 15 = 300s = 5min */\n    uint8 internal constant TARGET_BLOCK_OFFSET_MAX = 20;\n    /** @dev Duration[s]= duration[block] * 15[s/block] = 3 * 15 = 45s */\n    uint8 internal constant TARGET_BLOCK_OFFSET_MIN = 3;\n\n    uint internal constant PRICE_MIN = 1;\n    uint internal constant PRIZE_MIN = 2;\n    uint internal constant DEPOSIT_MIN = 0;\n    uint internal constant POSSIBILITIES_MIN = 10;\n\n\n    /** @dev the prize for winning. */\n    uint public prize;\n\n    /** @dev the price for playing. */\n    uint public price;\n    /** @dev the security deposit for playing. */\n    uint public deposit;\n\n    /** @dev results in a 1-in-possibilities chance */\n    uint public possibilities;\n\n    /** @dev Target block offset to block.number. Lower numbers increase performance. */\n    uint8 internal targetBlockOffset;\n\n\n    constructor(\n        uint _prize, uint _price, uint _deposit, uint _possibilities,\n        address _tokenAddress, uint8 _targetBlockOffset\n    ) Game(_tokenAddress) SinglePlayerRandomness() public {\n        require(PRIZE_MIN <= _prize);\n        require(_price < _prize);\n        require(PRICE_MIN <= _price);\n        require(DEPOSIT_MIN <= _deposit);\n        require(POSSIBILITIES_MIN <= _possibilities);\n        require(TARGET_BLOCK_OFFSET_MIN <= _targetBlockOffset);\n        require(_targetBlockOffset <= TARGET_BLOCK_OFFSET_MAX);\n\n        prize = _prize;\n        price = _price;\n        deposit = _deposit;\n        possibilities = _possibilities;\n        targetBlockOffset = _targetBlockOffset;\n    }\n\n\n    /*\n     * Modifiers.\n     */\n\n\n    /*\n     * Business functions.\n     */\n    function tokenFallback(address _sender, address _origin, uint256 _value, bytes _data) public returns (bool success) {\n        //TODO pass payment through to the casino owner!\n        success = true;\n    }\n\n\n    /**\n     * @dev Pulls the lever of the slot machine.\n     * @dev Starts the commit phase.\n     */\n    function pullTheLever() external isAvailable {\n\n        uint guess = uint(tx.origin) % possibilities;\n\n        setTarget(guess, block.number.add(targetBlockOffset));\n    }\n\n    /**\n     * @dev Claims the prize.\n     * @dev Starts the claim phase.\n     */\n    function claim() external isAvailable {\n\n        //throws already\n        bool guessCorrect = guessedRight(possibilities);\n\n        if(guessCorrect) {\n            //TODO transfer prize\n            //TODO return deposit\n        } else {\n            //TODO return deposit\n        }\n\n        delete playerGuess[tx.origin];\n        delete playerTargetBlock[tx.origin];\n    }\n\n\n    /*\n     * Maintenance functions.\n     */\n\n    /**\n     * @dev Sets a price and a prize.\n     * @param _price the price.\n     * @param _prize the prize.\n     */\n    function setPrice(uint _price, uint _prize) external onlyRole(ROLE_SUPERVISER) isNotAvailable {\n        require(PRICE_MIN < _price);\n        require(PRIZE_MIN < _prize);\n        require(_price < _prize);\n\n        price = _price;\n        prize = _prize;\n    }\n\n    /**\n     * @dev Sets the security deposit.\n     * @param _deposit the deposit.\n     */\n    function setDeposit(uint _deposit) external onlyRole(ROLE_SUPERVISER) isNotAvailable {\n        require(DEPOSIT_MIN <= _deposit);\n\n        deposit = _deposit;\n    }\n\n    /**\n     * @dev Sets the possibilities.\n     * @param _possibilities the possibilities.\n     */\n    function setPossibilities(uint _possibilities) external onlyRole(ROLE_SUPERVISER) isNotAvailable {\n        require(POSSIBILITIES_MIN <= _possibilities);\n\n        possibilities = _possibilities;\n    }\n\n    /**\n     * @dev Sets the target block offset.\n     */\n    function setTargetBlockOffset(uint8 _targetBlockOffset) external onlyRole(ROLE_SUPERVISER) isNotAvailable {\n        require(TARGET_BLOCK_OFFSET_MIN <= _targetBlockOffset);\n        require(_targetBlockOffset <= TARGET_BLOCK_OFFSET_MAX);\n\n        targetBlockOffset = _targetBlockOffset;\n    }\n}\n",
  "sourcePath": "/home/mariogastegger/1_private/study/repository/SC_Ass0.3/dapp/contracts/game/AllOrNothingSlotmachine.sol",
  "compiler": {
    "name": "solc",
    "version": "0.4.23+commit.124ca40d.Emscripten.clang"
  },
  "schemaVersion": "2.0.0",
  "updatedAt": "2018-06-17T12:11:39.403Z"
}