{
  "contractName": "AllOrNothingSlotmachine",
  "abi": [
    {
      "constant": false,
      "inputs": [],
      "name": "hold",
      "outputs": [],
      "payable": false,
      "stateMutability": "nonpayable",
      "type": "function"
    },
    {
      "constant": true,
      "inputs": [],
      "name": "name",
      "outputs": [
        {
          "name": "",
          "type": "bytes32"
        }
      ],
      "payable": false,
      "stateMutability": "view",
      "type": "function"
    },
    {
      "constant": true,
      "inputs": [
        {
          "name": "addr",
          "type": "address"
        },
        {
          "name": "roleName",
          "type": "string"
        }
      ],
      "name": "checkRole",
      "outputs": [],
      "payable": false,
      "stateMutability": "view",
      "type": "function"
    },
    {
      "constant": true,
      "inputs": [
        {
          "name": "addr",
          "type": "address"
        },
        {
          "name": "roleName",
          "type": "string"
        }
      ],
      "name": "hasRole",
      "outputs": [
        {
          "name": "",
          "type": "bool"
        }
      ],
      "payable": false,
      "stateMutability": "view",
      "type": "function"
    },
    {
      "constant": false,
      "inputs": [
        {
          "name": "_gamblingHallAddress",
          "type": "address"
        }
      ],
      "name": "setGamblingHall",
      "outputs": [],
      "payable": false,
      "stateMutability": "nonpayable",
      "type": "function"
    },
    {
      "constant": true,
      "inputs": [],
      "name": "possibilities",
      "outputs": [
        {
          "name": "",
          "type": "uint256"
        }
      ],
      "payable": false,
      "stateMutability": "view",
      "type": "function"
    },
    {
      "constant": true,
      "inputs": [],
      "name": "DATA_PULL_THE_LEVER",
      "outputs": [
        {
          "name": "",
          "type": "bytes"
        }
      ],
      "payable": false,
      "stateMutability": "view",
      "type": "function"
    },
    {
      "constant": true,
      "inputs": [],
      "name": "DATA_CLAIM",
      "outputs": [
        {
          "name": "",
          "type": "bytes"
        }
      ],
      "payable": false,
      "stateMutability": "view",
      "type": "function"
    },
    {
      "constant": true,
      "inputs": [],
      "name": "available",
      "outputs": [
        {
          "name": "",
          "type": "bool"
        }
      ],
      "payable": false,
      "stateMutability": "view",
      "type": "function"
    },
    {
      "constant": true,
      "inputs": [],
      "name": "ROLE_SUPERVISER",
      "outputs": [
        {
          "name": "",
          "type": "string"
        }
      ],
      "payable": false,
      "stateMutability": "view",
      "type": "function"
    },
    {
      "constant": false,
      "inputs": [],
      "name": "release",
      "outputs": [],
      "payable": false,
      "stateMutability": "nonpayable",
      "type": "function"
    },
    {
      "constant": true,
      "inputs": [],
      "name": "gamblingHall",
      "outputs": [
        {
          "name": "",
          "type": "address"
        }
      ],
      "payable": false,
      "stateMutability": "view",
      "type": "function"
    },
    {
      "constant": true,
      "inputs": [],
      "name": "price",
      "outputs": [
        {
          "name": "",
          "type": "uint256"
        }
      ],
      "payable": false,
      "stateMutability": "view",
      "type": "function"
    },
    {
      "constant": true,
      "inputs": [],
      "name": "deposit",
      "outputs": [
        {
          "name": "",
          "type": "uint256"
        }
      ],
      "payable": false,
      "stateMutability": "view",
      "type": "function"
    },
    {
      "constant": true,
      "inputs": [],
      "name": "prize",
      "outputs": [
        {
          "name": "",
          "type": "uint256"
        }
      ],
      "payable": false,
      "stateMutability": "view",
      "type": "function"
    },
    {
      "inputs": [
        {
          "name": "_name",
          "type": "bytes32"
        },
        {
          "name": "_prize",
          "type": "uint256"
        },
        {
          "name": "_price",
          "type": "uint256"
        },
        {
          "name": "_deposit",
          "type": "uint256"
        },
        {
          "name": "_possibilities",
          "type": "uint256"
        },
        {
          "name": "_gamblingHallAddress",
          "type": "address"
        },
        {
          "name": "_targetBlockOffset",
          "type": "uint8"
        }
      ],
      "payable": false,
      "stateMutability": "nonpayable",
      "type": "constructor"
    },
    {
      "anonymous": false,
      "inputs": [
        {
          "indexed": false,
          "name": "_customer",
          "type": "address"
        },
        {
          "indexed": false,
          "name": "_interaction",
          "type": "bytes"
        }
      ],
      "name": "Interaction",
      "type": "event"
    },
    {
      "anonymous": false,
      "inputs": [
        {
          "indexed": false,
          "name": "_customer",
          "type": "address"
        },
        {
          "indexed": false,
          "name": "_guess",
          "type": "uint256"
        },
        {
          "indexed": false,
          "name": "_currentBlock",
          "type": "uint256"
        },
        {
          "indexed": false,
          "name": "_targetBlock",
          "type": "uint256"
        }
      ],
      "name": "GuessMade",
      "type": "event"
    },
    {
      "anonymous": false,
      "inputs": [
        {
          "indexed": false,
          "name": "_customer",
          "type": "address"
        },
        {
          "indexed": false,
          "name": "_possibilities",
          "type": "uint256"
        }
      ],
      "name": "GuessedRight",
      "type": "event"
    },
    {
      "anonymous": false,
      "inputs": [
        {
          "indexed": false,
          "name": "_number",
          "type": "uint256"
        },
        {
          "indexed": false,
          "name": "_possibilities",
          "type": "uint256"
        }
      ],
      "name": "NewRandomNumber",
      "type": "event"
    },
    {
      "anonymous": false,
      "inputs": [
        {
          "indexed": false,
          "name": "_customer",
          "type": "address"
        }
      ],
      "name": "Played",
      "type": "event"
    },
    {
      "anonymous": false,
      "inputs": [
        {
          "indexed": false,
          "name": "_customer",
          "type": "address"
        },
        {
          "indexed": false,
          "name": "_prize",
          "type": "uint256"
        }
      ],
      "name": "CustomerWon",
      "type": "event"
    },
    {
      "anonymous": false,
      "inputs": [
        {
          "indexed": false,
          "name": "_customer",
          "type": "address"
        }
      ],
      "name": "CustomerLost",
      "type": "event"
    },
    {
      "anonymous": false,
      "inputs": [],
      "name": "Hold",
      "type": "event"
    },
    {
      "anonymous": false,
      "inputs": [],
      "name": "Released",
      "type": "event"
    },
    {
      "anonymous": false,
      "inputs": [
        {
          "indexed": false,
          "name": "_parameter",
          "type": "string"
        },
        {
          "indexed": false,
          "name": "_newValue",
          "type": "uint256"
        }
      ],
      "name": "ParameterChanged",
      "type": "event"
    },
    {
      "anonymous": false,
      "inputs": [
        {
          "indexed": false,
          "name": "_newGamblingHall",
          "type": "address"
        }
      ],
      "name": "GamblingHallChanged",
      "type": "event"
    },
    {
      "anonymous": false,
      "inputs": [
        {
          "indexed": false,
          "name": "addr",
          "type": "address"
        },
        {
          "indexed": false,
          "name": "roleName",
          "type": "string"
        }
      ],
      "name": "RoleAdded",
      "type": "event"
    },
    {
      "anonymous": false,
      "inputs": [
        {
          "indexed": false,
          "name": "addr",
          "type": "address"
        },
        {
          "indexed": false,
          "name": "roleName",
          "type": "string"
        }
      ],
      "name": "RoleRemoved",
      "type": "event"
    },
    {
      "constant": false,
      "inputs": [
        {
          "name": "_sender",
          "type": "address"
        },
        {
          "name": "_origin",
          "type": "address"
        },
        {
          "name": "_value",
          "type": "uint256"
        },
        {
          "name": "_data",
          "type": "bytes"
        }
      ],
      "name": "tokenFallback",
      "outputs": [
        {
          "name": "success",
          "type": "bool"
        }
      ],
      "payable": false,
      "stateMutability": "nonpayable",
      "type": "function"
    },
    {
      "constant": false,
      "inputs": [
        {
          "name": "_price",
          "type": "uint256"
        },
        {
          "name": "_prize",
          "type": "uint256"
        }
      ],
      "name": "setPrice",
      "outputs": [],
      "payable": false,
      "stateMutability": "nonpayable",
      "type": "function"
    },
    {
      "constant": false,
      "inputs": [
        {
          "name": "_deposit",
          "type": "uint256"
        }
      ],
      "name": "setDeposit",
      "outputs": [],
      "payable": false,
      "stateMutability": "nonpayable",
      "type": "function"
    },
    {
      "constant": false,
      "inputs": [
        {
          "name": "_possibilities",
          "type": "uint256"
        }
      ],
      "name": "setPossibilities",
      "outputs": [],
      "payable": false,
      "stateMutability": "nonpayable",
      "type": "function"
    },
    {
      "constant": false,
      "inputs": [
        {
          "name": "_targetBlockOffset",
          "type": "uint8"
        }
      ],
      "name": "setTargetBlockOffset",
      "outputs": [],
      "payable": false,
      "stateMutability": "nonpayable",
      "type": "function"
    }
  ],
  "bytecode": "0x60806040523480156200001157600080fd5b5060405160e080620032d2833981018060405281019080805190602001909291908051906020019092919080519060200190929190805190602001909291908051906020019092919080519060200190929190805190602001909291905050508682600073ffffffffffffffffffffffffffffffffffffffff168173ffffffffffffffffffffffffffffffffffffffff1614151515620000b057600080fd5b816002816000191690555080600160006101000a81548173ffffffffffffffffffffffffffffffffffffffff021916908373ffffffffffffffffffffffffffffffffffffffff1602179055506200014c336040805190810160405280600a81526020017f73757065727669736572000000000000000000000000000000000000000000008152506200022e640100000000026401000000009004565b6000600360006101000a81548160ff0219169083151502179055505050856002111515156200017a57600080fd5b85851015156200018957600080fd5b846001111515156200019a57600080fd5b83600011151515620001ab57600080fd5b82600a11151515620001bc57600080fd5b8060ff16600360ff1611151515620001d357600080fd5b601460ff168160ff1611151515620001ea57600080fd5b8560068190555084600781905550836008819055508260098190555080600a60006101000a81548160ff021916908360ff16021790555050505050505050620003f2565b620002bd826000836040518082805190602001908083835b6020831015156200026d578051825260208201915060208101905060208303925062000246565b6001836020036101000a0380198251168184511680821785525050505050509050019150509081526020016040518091039020620003946401000000000262002e46179091906401000000009004565b7fbfec83d64eaa953f2708271a023ab9ee82057f8f3578d548c1a4ba0b5b7004898282604051808373ffffffffffffffffffffffffffffffffffffffff1673ffffffffffffffffffffffffffffffffffffffff16815260200180602001828103825283818151815260200191508051906020019080838360005b838110156200035457808201518184015260208101905062000337565b50505050905090810190601f168015620003825780820380516001836020036101000a031916815260200191505b50935050505060405180910390a15050565b60018260000160008373ffffffffffffffffffffffffffffffffffffffff1673ffffffffffffffffffffffffffffffffffffffff16815260200190815260200160002060006101000a81548160ff0219169083151502179055505050565b612ed080620004026000396000f300608060405260043610610111576000357c0100000000000000000000000000000000000000000000000000000000900463ffffffff168062e0c53f1461011657806306fdde031461012d5780630988ca8c146101605780630cb57804146101e9578063217fe6c61461021657806325cd1403146102b7578063305727b4146102fa57806331286d9d146103255780633d810ae1146103b557806348a0d754146104455780634a70179a146104745780634c1230191461050457806386d1a69f146105cf5780639033d34e146105e65780639673c8fa14610616578063a035b1fe1461066d578063d0e30db014610698578063e3ac5d26146106c3578063f5bade66146106ee578063f7d975771461071b575b600080fd5b34801561012257600080fd5b5061012b610752565b005b34801561013957600080fd5b5061014261095e565b60405180826000191660001916815260200191505060405180910390f35b34801561016c57600080fd5b506101e7600480360381019080803573ffffffffffffffffffffffffffffffffffffffff169060200190929190803590602001908201803590602001908080601f0160208091040260200160405190810160405280939291908181526020018383808284378201915050505050509192919290505050610964565b005b3480156101f557600080fd5b50610214600480360381019080803590602001909291905050506109e5565b005b34801561022257600080fd5b5061029d600480360381019080803573ffffffffffffffffffffffffffffffffffffffff169060200190929190803590602001908201803590602001908080601f0160208091040260200160405190810160405280939291908181526020018383808284378201915050505050509192919290505050610c35565b604051808215151515815260200191505060405180910390f35b3480156102c357600080fd5b506102f8600480360381019080803573ffffffffffffffffffffffffffffffffffffffff169060200190929190505050610cbc565b005b34801561030657600080fd5b5061030f610f63565b6040518082815260200191505060405180910390f35b34801561033157600080fd5b5061033a610f69565b6040518080602001828103825283818151815260200191508051906020019080838360005b8381101561037a57808201518184015260208101905061035f565b50505050905090810190601f1680156103a75780820380516001836020036101000a031916815260200191505b509250505060405180910390f35b3480156103c157600080fd5b506103ca610fa2565b6040518080602001828103825283818151815260200191508051906020019080838360005b8381101561040a5780820151818401526020810190506103ef565b50505050905090810190601f1680156104375780820380516001836020036101000a031916815260200191505b509250505060405180910390f35b34801561045157600080fd5b5061045a610fdb565b604051808215151515815260200191505060405180910390f35b34801561048057600080fd5b50610489610fee565b6040518080602001828103825283818151815260200191508051906020019080838360005b838110156104c95780820151818401526020810190506104ae565b50505050905090810190601f1680156104f65780820380516001836020036101000a031916815260200191505b509250505060405180910390f35b34801561051057600080fd5b506105b5600480360381019080803573ffffffffffffffffffffffffffffffffffffffff169060200190929190803573ffffffffffffffffffffffffffffffffffffffff16906020019092919080359060200190929190803590602001908201803590602001908080601f0160208091040260200160405190810160405280939291908181526020018383808284378201915050505050509192919290505050611027565b604051808215151515815260200191505060405180910390f35b3480156105db57600080fd5b506105e46114c9565b005b3480156105f257600080fd5b50610614600480360381019080803560ff1690602001909291905050506116d6565b005b34801561062257600080fd5b5061062b611966565b604051808273ffffffffffffffffffffffffffffffffffffffff1673ffffffffffffffffffffffffffffffffffffffff16815260200191505060405180910390f35b34801561067957600080fd5b5061068261198c565b6040518082815260200191505060405180910390f35b3480156106a457600080fd5b506106ad611992565b6040518082815260200191505060405180910390f35b3480156106cf57600080fd5b506106d8611998565b6040518082815260200191505060405180910390f35b3480156106fa57600080fd5b506107196004803603810190808035906020019092919050505061199e565b005b34801561072757600080fd5b506107506004803603810190808035906020019092919080359060200190929190505050611bee565b005b600160009054906101000a900473ffffffffffffffffffffffffffffffffffffffff1673ffffffffffffffffffffffffffffffffffffffff16639403e8dd6040518163ffffffff167c0100000000000000000000000000000000000000000000000000000000028152600401602060405180830381600087803b1580156107d857600080fd5b505af11580156107ec573d6000803e3d6000fd5b505050506040513d602081101561080257600080fd5b810190808051906020019092919050505073ffffffffffffffffffffffffffffffffffffffff16635f88eade6040518163ffffffff167c0100000000000000000000000000000000000000000000000000000000028152600401602060405180830381600087803b15801561087657600080fd5b505af115801561088a573d6000803e3d6000fd5b505050506040513d60208110156108a057600080fd5b810190808051906020019092919050505080156108c95750600360009054906101000a900460ff165b15156108d457600080fd5b6040805190810160405280600a81526020017f73757065727669736572000000000000000000000000000000000000000000008152506109143382610964565b6000600360006101000a81548160ff0219169083151502179055507f20d29efe076941f73e5574acb023c424d63cd6d3d12eb5ac3108a5eaf177daed60405160405180910390a150565b60025481565b6109e1826000836040518082805190602001908083835b6020831015156109a0578051825260208201915060208101905060208303925061097b565b6001836020036101000a0380198251168184511680821785525050505050509050019150509081526020016040518091039020611ed490919063ffffffff16565b5050565b6040805190810160405280600a81526020017f7375706572766973657200000000000000000000000000000000000000000000815250610a253382610964565b600160009054906101000a900473ffffffffffffffffffffffffffffffffffffffff1673ffffffffffffffffffffffffffffffffffffffff16639403e8dd6040518163ffffffff167c0100000000000000000000000000000000000000000000000000000000028152600401602060405180830381600087803b158015610aab57600080fd5b505af1158015610abf573d6000803e3d6000fd5b505050506040513d6020811015610ad557600080fd5b810190808051906020019092919050505073ffffffffffffffffffffffffffffffffffffffff16635f88eade6040518163ffffffff167c0100000000000000000000000000000000000000000000000000000000028152600401602060405180830381600087803b158015610b4957600080fd5b505af1158015610b5d573d6000803e3d6000fd5b505050506040513d6020811015610b7357600080fd5b81019080805190602001909291905050501580610b9d5750600360009054906101000a900460ff16155b1515610ba857600080fd5b81600a11151515610bb857600080fd5b816009819055507f18af1c2db06558764ef7e5f81f429c1ec57050d7b3eb7c0cdd985ce6257ec97260095460405180806020018381526020018281038252600d8152602001807f706f73736962696c6974696573000000000000000000000000000000000000008152506020019250505060405180910390a15050565b6000610cb4836000846040518082805190602001908083835b602083101515610c735780518252602082019150602081019050602083039250610c4e565b6001836020036101000a0380198251168184511680821785525050505050509050019150509081526020016040518091039020611eed90919063ffffffff16565b905092915050565b600160009054906101000a900473ffffffffffffffffffffffffffffffffffffffff1673ffffffffffffffffffffffffffffffffffffffff16639403e8dd6040518163ffffffff167c0100000000000000000000000000000000000000000000000000000000028152600401602060405180830381600087803b158015610d4257600080fd5b505af1158015610d56573d6000803e3d6000fd5b505050506040513d6020811015610d6c57600080fd5b810190808051906020019092919050505073ffffffffffffffffffffffffffffffffffffffff16635f88eade6040518163ffffffff167c0100000000000000000000000000000000000000000000000000000000028152600401602060405180830381600087803b158015610de057600080fd5b505af1158015610df4573d6000803e3d6000fd5b505050506040513d6020811015610e0a57600080fd5b81019080805190602001909291905050501580610e345750600360009054906101000a900460ff16155b1515610e3f57600080fd5b6040805190810160405280600a81526020017f7375706572766973657200000000000000000000000000000000000000000000815250610e7f3382610964565b600073ffffffffffffffffffffffffffffffffffffffff168273ffffffffffffffffffffffffffffffffffffffff1614151515610ebb57600080fd5b81600160006101000a81548173ffffffffffffffffffffffffffffffffffffffff021916908373ffffffffffffffffffffffffffffffffffffffff1602179055507fea4e249311d4fff2342feb8854867bfd2c1b2e6a502fd66ca29b57d3c510ce6782604051808273ffffffffffffffffffffffffffffffffffffffff1673ffffffffffffffffffffffffffffffffffffffff16815260200191505060405180910390a15050565b60095481565b6040805190810160405280600c81526020017f70756c6c5468654c65766572000000000000000000000000000000000000000081525081565b6040805190810160405280600581526020017f636c61696d00000000000000000000000000000000000000000000000000000081525081565b600360009054906101000a900460ff1681565b6040805190810160405280600a81526020017f737570657276697365720000000000000000000000000000000000000000000081525081565b6000600160009054906101000a900473ffffffffffffffffffffffffffffffffffffffff1673ffffffffffffffffffffffffffffffffffffffff16639403e8dd6040518163ffffffff167c0100000000000000000000000000000000000000000000000000000000028152600401602060405180830381600087803b1580156110af57600080fd5b505af11580156110c3573d6000803e3d6000fd5b505050506040513d60208110156110d957600080fd5b810190808051906020019092919050505073ffffffffffffffffffffffffffffffffffffffff1663fc0c546a6040518163ffffffff167c0100000000000000000000000000000000000000000000000000000000028152600401602060405180830381600087803b15801561114d57600080fd5b505af1158015611161573d6000803e3d6000fd5b505050506040513d602081101561117757600080fd5b810190808051906020019092919050505073ffffffffffffffffffffffffffffffffffffffff163373ffffffffffffffffffffffffffffffffffffffff161415156111c157600080fd5b6040805190810160405280600c81526020017f70756c6c5468654c6576657200000000000000000000000000000000000000008152506040518082805190602001908083835b60208310151561122c5780518252602082019150602081019050602083039250611207565b6001836020036101000a038019825116818451168082178552505050505050905001915050604051809103902060001916826040518082805190602001908083835b602083101515611293578051825260208201915060208101905060208303925061126e565b6001836020036101000a03801982511681845116808217855250505050505090500191505060405180910390206000191614156112d9576112d48484611f46565b6113ed565b6040805190810160405280600581526020017f636c61696d0000000000000000000000000000000000000000000000000000008152506040518082805190602001908083835b602083101515611344578051825260208201915060208101905060208303925061131f565b6001836020036101000a038019825116818451168082178552505050505050905001915050604051809103902060001916826040518082805190602001908083835b6020831015156113ab5780518252602082019150602081019050602083039250611386565b6001836020036101000a03801982511681845116808217855250505050505090500191505060405180910390206000191614156113ec576113eb846124b0565b5b5b600190507f079a156c3ff5d06855195b9aac839c642727db985cb8834a2cbc2f75313b8f3c8483604051808373ffffffffffffffffffffffffffffffffffffffff1673ffffffffffffffffffffffffffffffffffffffff16815260200180602001828103825283818151815260200191508051906020019080838360005b8381101561148657808201518184015260208101905061146b565b50505050905090810190601f1680156114b35780820380516001836020036101000a031916815260200191505b50935050505060405180910390a1949350505050565b600160009054906101000a900473ffffffffffffffffffffffffffffffffffffffff1673ffffffffffffffffffffffffffffffffffffffff16639403e8dd6040518163ffffffff167c0100000000000000000000000000000000000000000000000000000000028152600401602060405180830381600087803b15801561154f57600080fd5b505af1158015611563573d6000803e3d6000fd5b505050506040513d602081101561157957600080fd5b810190808051906020019092919050505073ffffffffffffffffffffffffffffffffffffffff16635f88eade6040518163ffffffff167c0100000000000000000000000000000000000000000000000000000000028152600401602060405180830381600087803b1580156115ed57600080fd5b505af1158015611601573d6000803e3d6000fd5b505050506040513d602081101561161757600080fd5b810190808051906020019092919050505015806116415750600360009054906101000a900460ff16155b151561164c57600080fd5b6040805190810160405280600a81526020017f737570657276697365720000000000000000000000000000000000000000000081525061168c3382610964565b6001600360006101000a81548160ff0219169083151502179055507f11f465e766ea3db0c8e7ec9feeeb4a40a061dd0d533d8e238d8e51627e34846960405160405180910390a150565b6040805190810160405280600a81526020017f73757065727669736572000000000000000000000000000000000000000000008152506117163382610964565b600160009054906101000a900473ffffffffffffffffffffffffffffffffffffffff1673ffffffffffffffffffffffffffffffffffffffff16639403e8dd6040518163ffffffff167c0100000000000000000000000000000000000000000000000000000000028152600401602060405180830381600087803b15801561179c57600080fd5b505af11580156117b0573d6000803e3d6000fd5b505050506040513d60208110156117c657600080fd5b810190808051906020019092919050505073ffffffffffffffffffffffffffffffffffffffff16635f88eade6040518163ffffffff167c0100000000000000000000000000000000000000000000000000000000028152600401602060405180830381600087803b15801561183a57600080fd5b505af115801561184e573d6000803e3d6000fd5b505050506040513d602081101561186457600080fd5b8101908080519060200190929190505050158061188e5750600360009054906101000a900460ff16155b151561189957600080fd5b8160ff16600360ff16111515156118af57600080fd5b601460ff168260ff16111515156118c557600080fd5b81600a60006101000a81548160ff021916908360ff1602179055507f18af1c2db06558764ef7e5f81f429c1ec57050d7b3eb7c0cdd985ce6257ec972600a60009054906101000a900460ff1660405180806020018360ff168152602001828103825260118152602001807f746172676574426c6f636b4f66667365740000000000000000000000000000008152506020019250505060405180910390a15050565b600160009054906101000a900473ffffffffffffffffffffffffffffffffffffffff1681565b60075481565b60085481565b60065481565b6040805190810160405280600a81526020017f73757065727669736572000000000000000000000000000000000000000000008152506119de3382610964565b600160009054906101000a900473ffffffffffffffffffffffffffffffffffffffff1673ffffffffffffffffffffffffffffffffffffffff16639403e8dd6040518163ffffffff167c0100000000000000000000000000000000000000000000000000000000028152600401602060405180830381600087803b158015611a6457600080fd5b505af1158015611a78573d6000803e3d6000fd5b505050506040513d6020811015611a8e57600080fd5b810190808051906020019092919050505073ffffffffffffffffffffffffffffffffffffffff16635f88eade6040518163ffffffff167c0100000000000000000000000000000000000000000000000000000000028152600401602060405180830381600087803b158015611b0257600080fd5b505af1158015611b16573d6000803e3d6000fd5b505050506040513d6020811015611b2c57600080fd5b81019080805190602001909291905050501580611b565750600360009054906101000a900460ff16155b1515611b6157600080fd5b81600011151515611b7157600080fd5b816008819055507f18af1c2db06558764ef7e5f81f429c1ec57050d7b3eb7c0cdd985ce6257ec9726008546040518080602001838152602001828103825260078152602001807f6465706f736974000000000000000000000000000000000000000000000000008152506020019250505060405180910390a15050565b6040805190810160405280600a81526020017f7375706572766973657200000000000000000000000000000000000000000000815250611c2e3382610964565b600160009054906101000a900473ffffffffffffffffffffffffffffffffffffffff1673ffffffffffffffffffffffffffffffffffffffff16639403e8dd6040518163ffffffff167c0100000000000000000000000000000000000000000000000000000000028152600401602060405180830381600087803b158015611cb457600080fd5b505af1158015611cc8573d6000803e3d6000fd5b505050506040513d6020811015611cde57600080fd5b810190808051906020019092919050505073ffffffffffffffffffffffffffffffffffffffff16635f88eade6040518163ffffffff167c0100000000000000000000000000000000000000000000000000000000028152600401602060405180830381600087803b158015611d5257600080fd5b505af1158015611d66573d6000803e3d6000fd5b505050506040513d6020811015611d7c57600080fd5b81019080805190602001909291905050501580611da65750600360009054906101000a900460ff16155b1515611db157600080fd5b826001101515611dc057600080fd5b816002101515611dcf57600080fd5b8183101515611ddd57600080fd5b82600781905550816006819055507f18af1c2db06558764ef7e5f81f429c1ec57050d7b3eb7c0cdd985ce6257ec9726007546040518080602001838152602001828103825260058152602001807f70726963650000000000000000000000000000000000000000000000000000008152506020019250505060405180910390a17f18af1c2db06558764ef7e5f81f429c1ec57050d7b3eb7c0cdd985ce6257ec9726006546040518080602001838152602001828103825260058152602001807f7072697a650000000000000000000000000000000000000000000000000000008152506020019250505060405180910390a1505050565b611ede8282611eed565b1515611ee957600080fd5b5050565b60008260000160008373ffffffffffffffffffffffffffffffffffffffff1673ffffffffffffffffffffffffffffffffffffffff16815260200190815260200160002060009054906101000a900460ff16905092915050565b6000600160009054906101000a900473ffffffffffffffffffffffffffffffffffffffff1673ffffffffffffffffffffffffffffffffffffffff16639403e8dd6040518163ffffffff167c0100000000000000000000000000000000000000000000000000000000028152600401602060405180830381600087803b158015611fce57600080fd5b505af1158015611fe2573d6000803e3d6000fd5b505050506040513d6020811015611ff857600080fd5b810190808051906020019092919050505073ffffffffffffffffffffffffffffffffffffffff16635f88eade6040518163ffffffff167c0100000000000000000000000000000000000000000000000000000000028152600401602060405180830381600087803b15801561206c57600080fd5b505af1158015612080573d6000803e3d6000fd5b505050506040513d602081101561209657600080fd5b810190808051906020019092919050505080156120bf5750600360009054906101000a900460ff165b15156120ca57600080fd5b6120e1600854600754612ba790919063ffffffff16565b821415156120ee57600080fd5b6009548373ffffffffffffffffffffffffffffffffffffffff1681151561211157fe5b0690506121428161213d600a60009054906101000a900460ff1660ff1643612ba790919063ffffffff16565b612bc3565b600160009054906101000a900473ffffffffffffffffffffffffffffffffffffffff1673ffffffffffffffffffffffffffffffffffffffff16639403e8dd6040518163ffffffff167c0100000000000000000000000000000000000000000000000000000000028152600401602060405180830381600087803b1580156121c857600080fd5b505af11580156121dc573d6000803e3d6000fd5b505050506040513d60208110156121f257600080fd5b810190808051906020019092919050505073ffffffffffffffffffffffffffffffffffffffff1663fc0c546a6040518163ffffffff167c0100000000000000000000000000000000000000000000000000000000028152600401602060405180830381600087803b15801561226657600080fd5b505af115801561227a573d6000803e3d6000fd5b505050506040513d602081101561229057600080fd5b810190808051906020019092919050505073ffffffffffffffffffffffffffffffffffffffff1663a9059cbb600160009054906101000a900473ffffffffffffffffffffffffffffffffffffffff1673ffffffffffffffffffffffffffffffffffffffff16639403e8dd6040518163ffffffff167c0100000000000000000000000000000000000000000000000000000000028152600401602060405180830381600087803b15801561234257600080fd5b505af1158015612356573d6000803e3d6000fd5b505050506040513d602081101561236c57600080fd5b81019080805190602001909291905050506007546040518363ffffffff167c0100000000000000000000000000000000000000000000000000000000028152600401808373ffffffffffffffffffffffffffffffffffffffff1673ffffffffffffffffffffffffffffffffffffffff16815260200182815260200192505050602060405180830381600087803b15801561240557600080fd5b505af1158015612419573d6000803e3d6000fd5b505050506040513d602081101561242f57600080fd5b8101908080519060200190929190505050151561244857fe5b7f7c30c46017e6377826c6557f0d89e6760aced7a4ca61f469b1d729c50a81397c83604051808273ffffffffffffffffffffffffffffffffffffffff1673ffffffffffffffffffffffffffffffffffffffff16815260200191505060405180910390a1505050565b6000600160009054906101000a900473ffffffffffffffffffffffffffffffffffffffff1673ffffffffffffffffffffffffffffffffffffffff16639403e8dd6040518163ffffffff167c0100000000000000000000000000000000000000000000000000000000028152600401602060405180830381600087803b15801561253857600080fd5b505af115801561254c573d6000803e3d6000fd5b505050506040513d602081101561256257600080fd5b810190808051906020019092919050505073ffffffffffffffffffffffffffffffffffffffff16635f88eade6040518163ffffffff167c0100000000000000000000000000000000000000000000000000000000028152600401602060405180830381600087803b1580156125d657600080fd5b505af11580156125ea573d6000803e3d6000fd5b505050506040513d602081101561260057600080fd5b810190808051906020019092919050505080156126295750600360009054906101000a900460ff165b151561263457600080fd5b61263f600954612cd8565b9050801561287357600160009054906101000a900473ffffffffffffffffffffffffffffffffffffffff1673ffffffffffffffffffffffffffffffffffffffff16639403e8dd6040518163ffffffff167c0100000000000000000000000000000000000000000000000000000000028152600401602060405180830381600087803b1580156126cd57600080fd5b505af11580156126e1573d6000803e3d6000fd5b505050506040513d60208110156126f757600080fd5b810190808051906020019092919050505073ffffffffffffffffffffffffffffffffffffffff1663c4b0eb0a836006546002546040518463ffffffff167c0100000000000000000000000000000000000000000000000000000000028152600401808473ffffffffffffffffffffffffffffffffffffffff1673ffffffffffffffffffffffffffffffffffffffff16815260200183815260200182600019166000191681526020019350505050602060405180830381600087803b1580156127be57600080fd5b505af11580156127d2573d6000803e3d6000fd5b505050506040513d60208110156127e857600080fd5b8101908080519060200190929190505050151561280157fe5b7fb6b5d54b7fd701203972a96cc23f960330fc2ce7e76fae797b9e426bdfb2afa982600654604051808373ffffffffffffffffffffffffffffffffffffffff1673ffffffffffffffffffffffffffffffffffffffff1681526020018281526020019250505060405180910390a16128d7565b7f356b64d4687cb14011f62f6fb109fd2550788f710b413d547c95135bac773efc82604051808273ffffffffffffffffffffffffffffffffffffffff1673ffffffffffffffffffffffffffffffffffffffff16815260200191505060405180910390a15b600160009054906101000a900473ffffffffffffffffffffffffffffffffffffffff1673ffffffffffffffffffffffffffffffffffffffff16639403e8dd6040518163ffffffff167c0100000000000000000000000000000000000000000000000000000000028152600401602060405180830381600087803b15801561295d57600080fd5b505af1158015612971573d6000803e3d6000fd5b505050506040513d602081101561298757600080fd5b810190808051906020019092919050505073ffffffffffffffffffffffffffffffffffffffff1663fc0c546a6040518163ffffffff167c0100000000000000000000000000000000000000000000000000000000028152600401602060405180830381600087803b1580156129fb57600080fd5b505af1158015612a0f573d6000803e3d6000fd5b505050506040513d6020811015612a2557600080fd5b810190808051906020019092919050505073ffffffffffffffffffffffffffffffffffffffff1663a9059cbb836008546040518363ffffffff167c0100000000000000000000000000000000000000000000000000000000028152600401808373ffffffffffffffffffffffffffffffffffffffff1673ffffffffffffffffffffffffffffffffffffffff16815260200182815260200192505050602060405180830381600087803b158015612ada57600080fd5b505af1158015612aee573d6000803e3d6000fd5b505050506040513d6020811015612b0457600080fd5b81019080805190602001909291905050501515612b1d57fe5b600560003273ffffffffffffffffffffffffffffffffffffffff1673ffffffffffffffffffffffffffffffffffffffff16815260200190815260200160002060009055600460003273ffffffffffffffffffffffffffffffffffffffff1673ffffffffffffffffffffffffffffffffffffffff168152602001908152602001600020600090555050565b60008183019050828110151515612bba57fe5b80905092915050565b8043101515612bd157600080fd5b80600460003273ffffffffffffffffffffffffffffffffffffffff1673ffffffffffffffffffffffffffffffffffffffff1681526020019081526020016000208190555081600560003273ffffffffffffffffffffffffffffffffffffffff1673ffffffffffffffffffffffffffffffffffffffff168152602001908152602001600020819055507f54cbfca02e24ae44d72f7d8ecf1f678e35b5195ff3ef1b8afd46f06d3531eb5632834384604051808573ffffffffffffffffffffffffffffffffffffffff1673ffffffffffffffffffffffffffffffffffffffff16815260200184815260200183815260200182815260200194505050505060405180910390a15050565b6000612ce382612d96565b600560003273ffffffffffffffffffffffffffffffffffffffff1673ffffffffffffffffffffffffffffffffffffffff168152602001908152602001600020541490507feb08ba4da90ae5312a231be19531a96e03d9ac949eef6b63320fee430bf9fcc53283604051808373ffffffffffffffffffffffffffffffffffffffff1673ffffffffffffffffffffffffffffffffffffffff1681526020018281526020019250505060405180910390a1919050565b600080600460003273ffffffffffffffffffffffffffffffffffffffff1673ffffffffffffffffffffffffffffffffffffffff168152602001908152602001600020549050804310151515612dea57600080fd5b82814060019004811515612dfa57fe5b069150600090507fb96703b9c02952a9e4db998046d7c98dd0ba64ef19fdeb82c1ac33bf35cabb578284604051808381526020018281526020019250505060405180910390a150919050565b60018260000160008373ffffffffffffffffffffffffffffffffffffffff1673ffffffffffffffffffffffffffffffffffffffff16815260200190815260200160002060006101000a81548160ff02191690831515021790555050505600a165627a7a723058206dbab77ba5ea2056ca894210aca3d4ba5942a6193565253d763c97a7af28f1c00029",
  "source": "pragma solidity ^0.4.23;\n\nimport \"../random/SinglePlayerRandomness.sol\";\nimport \"./Game.sol\";\nimport \"../token/ERC223Receiver.sol\";\n\n/**\n * @title AllOrNothingSlotmachine\n * @author mariogastegger\n * @dev A slot machine where the chance of winning depends on the players address and a random number.\n */\ncontract AllOrNothingSlotmachine is Game, SinglePlayerRandomness, ERC223Receiver {\n\n    /*\n     * Events.\n     */\n\n    /**\n     * @dev Emitted when the slotmachine is interacted with.\n     * @param _customer     the customer who is interacting.\n     * @param _interaction  the kind of interaction.\n     */\n    event Interaction(address _customer, bytes _interaction);\n\n\n    /*\n     * Fields.\n     */\n\n    /** @dev Duration[s]= duration[block] * 15[s/block] = 20 * 15 = 300s = 5min */\n    uint8 internal constant TARGET_BLOCK_OFFSET_MAX = 20;\n    /** @dev Duration[s]= duration[block] * 15[s/block] = 3 * 15 = 45s */\n    uint8 internal constant TARGET_BLOCK_OFFSET_MIN = 3;\n\n    uint internal constant PRICE_MIN = 1;\n    uint internal constant PRIZE_MIN = 2;\n    uint internal constant DEPOSIT_MIN = 0;\n    uint internal constant POSSIBILITIES_MIN = 10;\n\n\n    /** @dev the prize for winning. */\n    uint public prize;\n\n    /** @dev the price for playing. */\n    uint public price;\n    /** @dev the security deposit for playing. */\n    uint public deposit;\n\n    /** @dev results in a 1-in-possibilities chance */\n    uint public possibilities;\n\n    /** @dev Target block offset to block.number. Lower numbers increase performance. */\n    uint8 internal targetBlockOffset;\n\n\n    constructor(\n        bytes32 _name, uint _prize, uint _price, uint _deposit, uint _possibilities,\n        address _gamblingHallAddress, uint8 _targetBlockOffset\n    ) Game(_name, _gamblingHallAddress) SinglePlayerRandomness() public {\n        require(PRIZE_MIN <= _prize);\n        require(_price < _prize);\n        require(PRICE_MIN <= _price);\n        require(DEPOSIT_MIN <= _deposit);\n        require(POSSIBILITIES_MIN <= _possibilities);\n        require(TARGET_BLOCK_OFFSET_MIN <= _targetBlockOffset);\n        require(_targetBlockOffset <= TARGET_BLOCK_OFFSET_MAX);\n\n        prize = _prize;\n        price = _price;\n        deposit = _deposit;\n        possibilities = _possibilities;\n        targetBlockOffset = _targetBlockOffset;\n    }\n\n\n    /*\n     * Modifiers.\n     */\n\n\n    /*\n     * Business functions.\n     */\n\n    /**\n     * Handles the customer actions along with the transfer.\n     */\n    function tokenFallback(address _sender, address _origin, uint256 _value, bytes _data) public returns (bool success) {\n        require(msg.sender == address(gamblingHall.casino().token()));\n        //the only allowed caller is the token contract.\n\n        if(keccak256(_data) == keccak256(DATA_PULL_THE_LEVER)) {\n\n            pullTheLever(_origin, _value);\n\n        } else if(keccak256(_data) == keccak256(DATA_CLAIM)) {\n\n            claim(_origin);\n        }\n\n        success = true;\n\n        emit Interaction(_origin, _data);\n    }\n\n\n    /**\n     * @dev String to be used in data of a ERC233 transfer to pull the lever of the slot machine.\n     */\n    bytes constant public DATA_PULL_THE_LEVER = \"pullTheLever\";\n\n    /**\n     * @dev Makes a guess for the Pulls the lever of the slot machine.\n     * @param _customer The customer, i.e. the gambler.\n     * @param _value the amount of tokens sent by the customer.\n     */\n    function pullTheLever(address _customer, uint _value) internal isAvailable {\n        require(_value == price.add(deposit));\n\n        uint guess = uint(_customer) % possibilities;\n\n        setTarget(guess, block.number.add(targetBlockOffset));\n\n        //transfer price to the casino\n        assert(gamblingHall.casino().token().transfer(\n                address(gamblingHall.casino()), //to\n                price)                          //value\n        );\n\n        emit Played(_customer);\n    }\n\n    /**\n     * @dev String to be used in data of a ERC233 transfer to claim the prize of the slot machine.\n     */\n    bytes constant public DATA_CLAIM = \"claim\";\n\n    /**\n     * @dev If the guess was correct, transfers the prize and the deposit to the customer.\n     * @dev If the guess was wrong, transfers the price to the casino and returns the deposit.\n     * @param _customer The customer, i.e. the gambler.\n     */\n    function claim(address _customer) internal isAvailable {\n        //TODO make shure it is not done in this block... this should be the case anyway since offset > 0\n\n        //throws already\n        bool guessCorrect = guessedRight(possibilities);\n\n        if(guessCorrect) {\n\n            //assume casino has enough tokens\n            //requests the casino to payout the prize\n            assert(gamblingHall.casino().payOutWin(_customer, prize, name));\n\n            emit CustomerWon(_customer, prize);\n\n        } else {\n\n            emit CustomerLost(_customer);\n        }\n\n        //pays back the deposit\n        assert(gamblingHall.casino().token().transfer(\n                _customer,  //to\n                deposit)    //value\n        );\n\n        delete playerGuess[tx.origin];\n        delete playerTargetBlock[tx.origin];\n    }\n\n\n    /*\n     * Maintenance functions.\n     */\n\n    /**\n     * @dev Sets a price and a prize.\n     * @param _price the price.\n     * @param _prize the prize.\n     */\n    function setPrice(uint _price, uint _prize) external onlyRole(ROLE_SUPERVISER) isNotAvailable {\n        require(PRICE_MIN < _price);\n        require(PRIZE_MIN < _prize);\n        require(_price < _prize);\n\n        price = _price;\n        prize = _prize;\n\n        emit ParameterChanged(\"price\", price);\n        emit ParameterChanged(\"prize\", prize);\n    }\n\n    /**\n     * @dev Sets the security deposit.\n     * @param _deposit the deposit.\n     */\n    function setDeposit(uint _deposit) external onlyRole(ROLE_SUPERVISER) isNotAvailable {\n        require(DEPOSIT_MIN <= _deposit);\n\n        deposit = _deposit;\n\n        emit ParameterChanged(\"deposit\", deposit);\n    }\n\n    /**\n     * @dev Sets the possibilities.\n     * @param _possibilities the possibilities.\n     */\n    function setPossibilities(uint _possibilities) external onlyRole(ROLE_SUPERVISER) isNotAvailable {\n        require(POSSIBILITIES_MIN <= _possibilities);\n\n        possibilities = _possibilities;\n\n        emit ParameterChanged(\"possibilities\", possibilities);\n    }\n\n    /**\n     * @dev Sets the target block offset.\n     */\n    function setTargetBlockOffset(uint8 _targetBlockOffset) external onlyRole(ROLE_SUPERVISER) isNotAvailable {\n        require(TARGET_BLOCK_OFFSET_MIN <= _targetBlockOffset);\n        require(_targetBlockOffset <= TARGET_BLOCK_OFFSET_MAX);\n\n        targetBlockOffset = _targetBlockOffset;\n\n        emit ParameterChanged(\"targetBlockOffset\", targetBlockOffset);\n    }\n}\n",
  "sourcePath": "/home/mariogastegger/1_private/study/repository/SC_Ass0.3/dapp/contracts/game/AllOrNothingSlotmachine.sol",
  "compiler": {
    "name": "solc",
    "version": "0.4.24+commit.e67f0147.Emscripten.clang"
  },
  "schemaVersion": "2.0.0",
  "updatedAt": "2018-06-19T12:08:17.228Z"
}