{
  "contractName": "Basic223Token",
  "abi": [
    {
      "constant": true,
      "inputs": [],
      "name": "totalSupply",
      "outputs": [
        {
          "name": "",
          "type": "uint256"
        }
      ],
      "payable": false,
      "stateMutability": "view",
      "type": "function"
    },
    {
      "constant": true,
      "inputs": [
        {
          "name": "_owner",
          "type": "address"
        }
      ],
      "name": "balanceOf",
      "outputs": [
        {
          "name": "",
          "type": "uint256"
        }
      ],
      "payable": false,
      "stateMutability": "view",
      "type": "function"
    },
    {
      "anonymous": false,
      "inputs": [
        {
          "indexed": true,
          "name": "_from",
          "type": "address"
        },
        {
          "indexed": true,
          "name": "_to",
          "type": "address"
        },
        {
          "indexed": false,
          "name": "_value",
          "type": "uint256"
        },
        {
          "indexed": true,
          "name": "_data",
          "type": "bytes"
        }
      ],
      "name": "Transfer",
      "type": "event"
    },
    {
      "anonymous": false,
      "inputs": [
        {
          "indexed": true,
          "name": "from",
          "type": "address"
        },
        {
          "indexed": true,
          "name": "to",
          "type": "address"
        },
        {
          "indexed": false,
          "name": "value",
          "type": "uint256"
        }
      ],
      "name": "Transfer",
      "type": "event"
    },
    {
      "constant": false,
      "inputs": [
        {
          "name": "_to",
          "type": "address"
        },
        {
          "name": "_value",
          "type": "uint256"
        }
      ],
      "name": "transfer",
      "outputs": [
        {
          "name": "success",
          "type": "bool"
        }
      ],
      "payable": false,
      "stateMutability": "nonpayable",
      "type": "function"
    },
    {
      "constant": false,
      "inputs": [
        {
          "name": "_to",
          "type": "address"
        },
        {
          "name": "_value",
          "type": "uint256"
        },
        {
          "name": "_data",
          "type": "bytes"
        }
      ],
      "name": "transfer",
      "outputs": [
        {
          "name": "success",
          "type": "bool"
        }
      ],
      "payable": false,
      "stateMutability": "nonpayable",
      "type": "function"
    }
  ],
  "bytecode": "0x608060405234801561001057600080fd5b5061081c806100206000396000f300608060405260043610610062576000357c0100000000000000000000000000000000000000000000000000000000900463ffffffff16806318160ddd1461006757806370a0823114610092578063a9059cbb146100e9578063be45fd621461014e575b600080fd5b34801561007357600080fd5b5061007c6101f9565b6040518082815260200191505060405180910390f35b34801561009e57600080fd5b506100d3600480360381019080803573ffffffffffffffffffffffffffffffffffffffff169060200190929190505050610203565b6040518082815260200191505060405180910390f35b3480156100f557600080fd5b50610134600480360381019080803573ffffffffffffffffffffffffffffffffffffffff1690602001909291908035906020019092919050505061024b565b604051808215151515815260200191505060405180910390f35b34801561015a57600080fd5b506101df600480360381019080803573ffffffffffffffffffffffffffffffffffffffff16906020019092919080359060200190929190803590602001908201803590602001908080601f0160208091040260200160405190810160405280939291908181526020018383808284378201915050505050509192919290505050610294565b604051808215151515815260200191505060405180910390f35b6000600154905090565b60008060008373ffffffffffffffffffffffffffffffffffffffff1673ffffffffffffffffffffffffffffffffffffffff168152602001908152602001600020549050919050565b600061028c838360006040519080825280601f01601f1916602001820160405280156102865781602001602082028038833980820191505090505b50610294565b905092915050565b60008073ffffffffffffffffffffffffffffffffffffffff168473ffffffffffffffffffffffffffffffffffffffff16141515156102d157600080fd5b6000803373ffffffffffffffffffffffffffffffffffffffff1673ffffffffffffffffffffffffffffffffffffffff16815260200190815260200160002054831115151561031e57600080fd5b6000808573ffffffffffffffffffffffffffffffffffffffff1673ffffffffffffffffffffffffffffffffffffffff168152602001908152602001600020546103ae846000808873ffffffffffffffffffffffffffffffffffffffff1673ffffffffffffffffffffffffffffffffffffffff168152602001908152602001600020546103f990919063ffffffff16565b1115156103ba57600080fd5b6103c48484610415565b15156103cc57fe5b6103d584610634565b156103ed576103e633858585610647565b90506103f2565b600190505b9392505050565b6000818301905082811015151561040c57fe5b80905092915050565b60008073ffffffffffffffffffffffffffffffffffffffff168373ffffffffffffffffffffffffffffffffffffffff161415151561045257600080fd5b6000803373ffffffffffffffffffffffffffffffffffffffff1673ffffffffffffffffffffffffffffffffffffffff16815260200190815260200160002054821115151561049f57600080fd5b6104f0826000803373ffffffffffffffffffffffffffffffffffffffff1673ffffffffffffffffffffffffffffffffffffffff168152602001908152602001600020546107d790919063ffffffff16565b6000803373ffffffffffffffffffffffffffffffffffffffff1673ffffffffffffffffffffffffffffffffffffffff16815260200190815260200160002081905550610583826000808673ffffffffffffffffffffffffffffffffffffffff1673ffffffffffffffffffffffffffffffffffffffff168152602001908152602001600020546103f990919063ffffffff16565b6000808573ffffffffffffffffffffffffffffffffffffffff1673ffffffffffffffffffffffffffffffffffffffff168152602001908152602001600020819055508273ffffffffffffffffffffffffffffffffffffffff163373ffffffffffffffffffffffffffffffffffffffff167fddf252ad1be2c89b69c2b068fc378daa952ba7f163c4a11628f55a4df523b3ef846040518082815260200191505060405180910390a36001905092915050565b600080823b905060008111915050919050565b6000808490508073ffffffffffffffffffffffffffffffffffffffff16634c123019338887876040518563ffffffff167c0100000000000000000000000000000000000000000000000000000000028152600401808573ffffffffffffffffffffffffffffffffffffffff1673ffffffffffffffffffffffffffffffffffffffff1681526020018473ffffffffffffffffffffffffffffffffffffffff1673ffffffffffffffffffffffffffffffffffffffff16815260200183815260200180602001828103825283818151815260200191508051906020019080838360005b83811015610742578082015181840152602081019050610727565b50505050905090810190601f16801561076f5780820380516001836020036101000a031916815260200191505b5095505050505050602060405180830381600087803b15801561079157600080fd5b505af11580156107a5573d6000803e3d6000fd5b505050506040513d60208110156107bb57600080fd5b8101908080519060200190929190505050915050949350505050565b60008282111515156107e557fe5b8183039050929150505600a165627a7a723058200b95df432ccf08f72cdfa96bc7b9cad4714a37a031d7df343b28f3f33e649a510029",
  "source": "pragma solidity ^0.4.18;\n\nimport './ERC223Basic.sol';\nimport './ERC223Receiver.sol';\nimport \"openzeppelin-solidity/contracts/token/ERC20/BasicToken.sol\";\n\n/**\n *\n * @title Basic token ERC223\n *        derived from Basic token ERC20\n * @dev see also: https://github.com/ethereum/EIPs/issues/223\n *\n * created by IAM <DEV> (Elky Bachtiar)\n * https://www.iamdeveloper.io\n *\n *\n * file: Basic223Token.sol\n * location: contracts/token/\n *\n*/\ncontract Basic223Token is ERC223Basic, BasicToken {\n\n    /**\n    * @dev transfer token for a specified address\n    * @param _to The address to transfer to.\n    * @param _value The amount to be transferred\n    * @param _data is arbitrary data sent with the token transferFrom. Simulates ether tx.data\n    * @return bool successful or not\n    */\n    function transfer(address _to, uint _value, bytes _data) public returns (bool success) {\n        require(_to != address(0));\n        require(_value <= balances[msg.sender]);\n        require(balances[_to].add(_value) > balances[_to]);  // Detect balance overflow\n\n        assert(super.transfer(_to, _value));               //@dev Save transfer\n\n        if (isContract(_to)){\n            return contractFallback(msg.sender, _to, _value, _data);\n        }\n        return true;\n    }\n\n    /**\n    * @dev transfer token for a specified address\n    * @param _to The address to transfer to.\n    * @param _value The amount to be transferred.\n    */\n    function transfer(address _to, uint256 _value) public returns (bool success) {\n        return transfer(_to, _value, new bytes(0));\n    }\n\n\n    //function that is called when transaction target is a contract\n    function contractFallback(address _origin, address _to, uint _value, bytes _data) internal returns (bool success) {\n        ERC223Receiver reciever = ERC223Receiver(_to);\n        return reciever.tokenFallback(msg.sender, _origin, _value, _data);\n    }\n\n    //assemble the given address bytecode. If bytecode exists then the _addr is a contract.\n    function isContract(address _addr) internal returns (bool is_contract) {\n        // retrieve the size of the code on target address, this needs assembly\n        uint length;\n        assembly { length := extcodesize(_addr) }\n        return length > 0;\n    }\n}\n",
  "sourcePath": "/home/mariogastegger/1_private/study/repository/SC_Ass0.3/dapp/contracts/bank/Basic223Token.sol",
  "compiler": {
    "name": "solc",
    "version": "0.4.23+commit.124ca40d.Emscripten.clang"
  },
  "schemaVersion": "2.0.0",
  "updatedAt": "2018-06-17T12:11:36.265Z"
}