{
  "contractName": "Casino",
  "abi": [
    {
      "constant": true,
      "inputs": [],
      "name": "name",
      "outputs": [
        {
          "name": "",
          "type": "string"
        }
      ],
      "payable": false,
      "stateMutability": "view",
      "type": "function"
    },
    {
      "constant": true,
      "inputs": [
        {
          "name": "addr",
          "type": "address"
        },
        {
          "name": "roleName",
          "type": "string"
        }
      ],
      "name": "checkRole",
      "outputs": [],
      "payable": false,
      "stateMutability": "view",
      "type": "function"
    },
    {
      "constant": true,
      "inputs": [
        {
          "name": "addr",
          "type": "address"
        },
        {
          "name": "roleName",
          "type": "string"
        }
      ],
      "name": "hasRole",
      "outputs": [
        {
          "name": "",
          "type": "bool"
        }
      ],
      "payable": false,
      "stateMutability": "view",
      "type": "function"
    },
    {
      "constant": true,
      "inputs": [],
      "name": "opened",
      "outputs": [
        {
          "name": "",
          "type": "bool"
        }
      ],
      "payable": false,
      "stateMutability": "view",
      "type": "function"
    },
    {
      "constant": true,
      "inputs": [],
      "name": "tokenPrice",
      "outputs": [
        {
          "name": "",
          "type": "uint256"
        }
      ],
      "payable": false,
      "stateMutability": "view",
      "type": "function"
    },
    {
      "inputs": [
        {
          "name": "_tokenAddress",
          "type": "address"
        },
        {
          "name": "_gamingHallAddress",
          "type": "address"
        },
        {
          "name": "_tokenPrice",
          "type": "uint256"
        }
      ],
      "payable": false,
      "stateMutability": "nonpayable",
      "type": "constructor"
    },
    {
      "anonymous": false,
      "inputs": [
        {
          "indexed": false,
          "name": "addr",
          "type": "address"
        },
        {
          "indexed": false,
          "name": "roleName",
          "type": "string"
        }
      ],
      "name": "RoleAdded",
      "type": "event"
    },
    {
      "anonymous": false,
      "inputs": [
        {
          "indexed": false,
          "name": "addr",
          "type": "address"
        },
        {
          "indexed": false,
          "name": "roleName",
          "type": "string"
        }
      ],
      "name": "RoleRemoved",
      "type": "event"
    },
    {
      "constant": false,
      "inputs": [],
      "name": "open",
      "outputs": [],
      "payable": false,
      "stateMutability": "nonpayable",
      "type": "function"
    },
    {
      "constant": false,
      "inputs": [],
      "name": "close",
      "outputs": [],
      "payable": false,
      "stateMutability": "nonpayable",
      "type": "function"
    },
    {
      "constant": false,
      "inputs": [],
      "name": "buy",
      "outputs": [],
      "payable": false,
      "stateMutability": "nonpayable",
      "type": "function"
    },
    {
      "constant": false,
      "inputs": [],
      "name": "payout",
      "outputs": [],
      "payable": false,
      "stateMutability": "nonpayable",
      "type": "function"
    },
    {
      "constant": false,
      "inputs": [
        {
          "name": "_sender",
          "type": "address"
        },
        {
          "name": "_origin",
          "type": "address"
        },
        {
          "name": "_value",
          "type": "uint256"
        },
        {
          "name": "_data",
          "type": "bytes"
        }
      ],
      "name": "tokenFallback",
      "outputs": [
        {
          "name": "success",
          "type": "bool"
        }
      ],
      "payable": false,
      "stateMutability": "nonpayable",
      "type": "function"
    },
    {
      "constant": false,
      "inputs": [
        {
          "name": "_tokenAddress",
          "type": "address"
        }
      ],
      "name": "setToken",
      "outputs": [],
      "payable": false,
      "stateMutability": "nonpayable",
      "type": "function"
    },
    {
      "constant": false,
      "inputs": [
        {
          "name": "_tokenPrice",
          "type": "uint256"
        }
      ],
      "name": "setTokenPrice",
      "outputs": [],
      "payable": false,
      "stateMutability": "nonpayable",
      "type": "function"
    },
    {
      "constant": false,
      "inputs": [
        {
          "name": "_gamingHallAddress",
          "type": "address"
        }
      ],
      "name": "setGamingHall",
      "outputs": [],
      "payable": false,
      "stateMutability": "nonpayable",
      "type": "function"
    }
  ],
  "bytecode": "0x608060405234801561001057600080fd5b50604051606080610cac833981018060405281019080805190602001909291908051906020019092919080519060200190929190505050600073ffffffffffffffffffffffffffffffffffffffff168373ffffffffffffffffffffffffffffffffffffffff161415151561008357600080fd5b600073ffffffffffffffffffffffffffffffffffffffff168273ffffffffffffffffffffffffffffffffffffffff16141515156100bf57600080fd5b6000811115156100ce57600080fd5b82600160006101000a81548173ffffffffffffffffffffffffffffffffffffffff021916908373ffffffffffffffffffffffffffffffffffffffff1602179055508060028190555081600360006101000a81548173ffffffffffffffffffffffffffffffffffffffff021916908373ffffffffffffffffffffffffffffffffffffffff1602179055506000600360146101000a81548160ff021916908315150217905550505050610b28806101846000396000f3006080604052600436106100c5576000357c0100000000000000000000000000000000000000000000000000000000900463ffffffff16806306fdde03146100ca5780630988ca8c1461015a578063144fa6d7146101e3578063217fe6c61461022657806343d726d6146102c75780634c123019146102de5780635f88eade146103a957806363bd1d4a146103d85780636a61e5fc146103ef5780637ff9b5961461041c578063a6f2ae3a14610447578063d26b9dad1461045e578063fcfff16f146104a1575b600080fd5b3480156100d657600080fd5b506100df6104b8565b6040518080602001828103825283818151815260200191508051906020019080838360005b8381101561011f578082015181840152602081019050610104565b50505050905090810190601f16801561014c5780820380516001836020036101000a031916815260200191505b509250505060405180910390f35b34801561016657600080fd5b506101e1600480360381019080803573ffffffffffffffffffffffffffffffffffffffff169060200190929190803590602001908201803590602001908080601f01602080910402602001604051908101604052809392919081815260200183838082843782019150505050505091929192905050506104f1565b005b3480156101ef57600080fd5b50610224600480360381019080803573ffffffffffffffffffffffffffffffffffffffff169060200190929190505050610572565b005b34801561023257600080fd5b506102ad600480360381019080803573ffffffffffffffffffffffffffffffffffffffff169060200190929190803590602001908201803590602001908080601f016020809104026020016040519081016040528093929190818152602001838380828437820191505050505050919291929050505061064f565b604051808215151515815260200191505060405180910390f35b3480156102d357600080fd5b506102dc6106d6565b005b3480156102ea57600080fd5b5061038f600480360381019080803573ffffffffffffffffffffffffffffffffffffffff169060200190929190803573ffffffffffffffffffffffffffffffffffffffff16906020019092919080359060200190929190803590602001908201803590602001908080601f016020809104026020016040519081016040528093929190818152602001838380828437820191505050505050919291929050505061074f565b604051808215151515815260200191505060405180910390f35b3480156103b557600080fd5b506103be610759565b604051808215151515815260200191505060405180910390f35b3480156103e457600080fd5b506103ed61076c565b005b3480156103fb57600080fd5b5061041a6004803603810190808035906020019092919050505061088a565b005b34801561042857600080fd5b50610431610900565b6040518082815260200191505060405180910390f35b34801561045357600080fd5b5061045c610906565b005b34801561046a57600080fd5b5061049f600480360381019080803573ffffffffffffffffffffffffffffffffffffffff169060200190929190505050610933565b005b3480156104ad57600080fd5b506104b6610a10565b005b6040805190810160405280600981526020017f4e6577205665676173000000000000000000000000000000000000000000000081525081565b61056e826000836040518082805190602001908083835b60208310151561052d5780518252602082019150602081019050602083039250610508565b6001836020036101000a0380198251168184511680821785525050505050509050019150509081526020016040518091039020610a8a90919063ffffffff16565b5050565b6040805190810160405280600581526020017f61646d696e0000000000000000000000000000000000000000000000000000008152506105b233826104f1565b600360149054906101000a900460ff161515156105ce57600080fd5b600073ffffffffffffffffffffffffffffffffffffffff168273ffffffffffffffffffffffffffffffffffffffff161415151561060a57600080fd5b81600160006101000a81548173ffffffffffffffffffffffffffffffffffffffff021916908373ffffffffffffffffffffffffffffffffffffffff1602179055505050565b60006106ce836000846040518082805190602001908083835b60208310151561068d5780518252602082019150602081019050602083039250610668565b6001836020036101000a0380198251168184511680821785525050505050509050019150509081526020016040518091039020610aa390919063ffffffff16565b905092915050565b600360149054906101000a900460ff1615156106f157600080fd5b6040805190810160405280600781526020017f6d616e616765720000000000000000000000000000000000000000000000000081525061073133826104f1565b6000600360146101000a81548160ff02191690831515021790555050565b6000949350505050565b600360149054906101000a900460ff1681565b600160009054906101000a900473ffffffffffffffffffffffffffffffffffffffff1673ffffffffffffffffffffffffffffffffffffffff166370a08231336040518263ffffffff167c0100000000000000000000000000000000000000000000000000000000028152600401808273ffffffffffffffffffffffffffffffffffffffff1673ffffffffffffffffffffffffffffffffffffffff168152602001915050602060405180830381600087803b15801561082957600080fd5b505af115801561083d573d6000803e3d6000fd5b505050506040513d602081101561085357600080fd5b81019080805190602001909291905050503073ffffffffffffffffffffffffffffffffffffffff163111151561088857600080fd5b565b6040805190810160405280600581526020017f61646d696e0000000000000000000000000000000000000000000000000000008152506108ca33826104f1565b600360149054906101000a900460ff161515156108e657600080fd5b6000821115156108f557600080fd5b816002819055505050565b60025481565b34600010151561091557600080fd5b60006002543481151561092457fe5b0614151561093157600080fd5b565b6040805190810160405280600581526020017f61646d696e00000000000000000000000000000000000000000000000000000081525061097333826104f1565b600360149054906101000a900460ff1615151561098f57600080fd5b600073ffffffffffffffffffffffffffffffffffffffff168273ffffffffffffffffffffffffffffffffffffffff16141515156109cb57600080fd5b81600360006101000a81548173ffffffffffffffffffffffffffffffffffffffff021916908373ffffffffffffffffffffffffffffffffffffffff1602179055505050565b600360149054906101000a900460ff16151515610a2c57600080fd5b6040805190810160405280600781526020017f6d616e6167657200000000000000000000000000000000000000000000000000815250610a6c33826104f1565b6001600360146101000a81548160ff02191690831515021790555050565b610a948282610aa3565b1515610a9f57600080fd5b5050565b60008260000160008373ffffffffffffffffffffffffffffffffffffffff1673ffffffffffffffffffffffffffffffffffffffff16815260200190815260200160002060009054906101000a900460ff169050929150505600a165627a7a7230582048d24dd22eddcfed81ad35d18502d9dc4af54c05187fcd477de0ade7d48826c60029",
  "source": "pragma solidity ^0.4.23;\n\nimport \"openzeppelin-solidity/contracts/math/SafeMath.sol\";\nimport \"openzeppelin-solidity/contracts/ownership/rbac/RBAC.sol\";\nimport \"./game/GamblingHall.sol\";\nimport \"./bank/CasinoToken.sol\";\n\n/**\n * @title Casino\n * @author mariogastegger\n * @dev The casino.\n */\ncontract Casino is RBAC, ERC223Receiver {\n    using SafeMath for uint256;\n\n    /*\n     * Events.\n     */\n\n    /*\n     * Fields.\n     */\n    string internal constant ROLE_ADMIN = \"admin\";\n    string internal constant ROLE_MANAGER = \"manager\";\n\n    string constant public name = \"New Vegas\";\n\n    CasinoToken internal token;\n    uint public tokenPrice;\n\n    GamblingHall internal gamingHall;\n\n    bool public opened;\n\n\n    /**\n     * @param _tokenAddress the address of the initial token.\n     * @param _gamingHallAddress the address of the initial gaming hall.\n     * @param _tokenPrice the initial token price.\n     */\n    //TEST:\n    constructor(address _tokenAddress, address _gamingHallAddress, uint _tokenPrice) public {\n        require(_tokenAddress != address(0));\n        require(_gamingHallAddress != address(0));\n        require(_tokenPrice > 0);\n\n        token = CasinoToken(_tokenAddress);\n        tokenPrice = _tokenPrice;\n\n        gamingHall = GamblingHall(_gamingHallAddress);\n\n        opened = false;\n    }\n\n\n    /*\n     * Modifiers.\n     */\n\n    /** @dev Requires the casino to be opened. */\n    //TEST:\n    modifier isOpened() {\n        require(opened);\n        _;\n    }\n\n    /** @dev Requires the casino to be closed. */\n    //TEST:\n    modifier isClosed() {\n        require(!opened);\n        _;\n    }\n\n\n    /*\n     * Business function.\n     */\n\n    /**\n     * @dev Opens the casino.\n     */\n    //TEST:\n    function open() external isClosed onlyRole(ROLE_MANAGER) {\n        opened = true;\n    }\n\n    /**\n     * @dev Closes the casino.\n     */\n    //TEST:\n    function close() external isOpened onlyRole(ROLE_MANAGER) {\n        opened = false;\n\n        //TODO stop all games and send feeback\n    }\n\n    /**\n     * @dev Transfers\n     */\n    //TEST:\n    function buy() external {\n        require(0 < msg.value);\n        require(msg.value % tokenPrice == 0);\n\n\n    }\n\n    /**\n     * @dev Returns ether for the senders tokens.\n     */\n    //TEST:\n    function payout() external {\n        require(address(this).balance > token.balanceOf(msg.sender));\n        //TODO\n    }\n\n    //dispatches moves to games\n    //TEST:\n    //@Override\n    function tokenFallback(address _sender, address _origin, uint256 _value, bytes _data) public returns (bool success) {\n\n\n\n    }\n\n\n\n    /*\n     * Maintenance functions.\n     */\n\n    /**\n     * @dev Sets a new token.\n     * @param _tokenAddress the address of a token.\n     */\n    //TEST:\n    function setToken(address _tokenAddress) external onlyRole(ROLE_ADMIN) isClosed {\n        require(_tokenAddress != address(0));\n\n        token = CasinoToken(_tokenAddress);\n    }\n\n    /**\n     * @dev Sets a token price.\n     * @param _tokenPrice the token price.\n     */\n    //TEST:\n    function setTokenPrice(uint _tokenPrice) external onlyRole(ROLE_ADMIN) isClosed {\n        require(_tokenPrice > 0);\n\n        tokenPrice = _tokenPrice;\n    }\n\n    /**\n     * @dev Sets a new gaming hall.\n     * @param _gamingHallAddress the address of a gaming hall.\n     */\n    //TEST:\n    function setGamingHall(address _gamingHallAddress) external onlyRole(ROLE_ADMIN) isClosed {\n        require(_gamingHallAddress != address(0));\n\n        gamingHall = GamblingHall(_gamingHallAddress);\n    }\n}\n",
  "sourcePath": "/home/mariogastegger/1_private/study/repository/SC_Ass0.3/dapp/contracts/Casino.sol",
  "compiler": {
    "name": "solc",
    "version": "0.4.23+commit.124ca40d.Emscripten.clang"
  },
  "schemaVersion": "2.0.0",
  "updatedAt": "2018-06-17T12:11:39.412Z"
}