{
  "contractName": "FirstGamblingHall",
  "abi": [
    {
      "constant": true,
      "inputs": [
        {
          "name": "addr",
          "type": "address"
        },
        {
          "name": "roleName",
          "type": "string"
        }
      ],
      "name": "checkRole",
      "outputs": [],
      "payable": false,
      "stateMutability": "view",
      "type": "function"
    },
    {
      "constant": true,
      "inputs": [
        {
          "name": "addr",
          "type": "address"
        },
        {
          "name": "roleName",
          "type": "string"
        }
      ],
      "name": "hasRole",
      "outputs": [
        {
          "name": "",
          "type": "bool"
        }
      ],
      "payable": false,
      "stateMutability": "view",
      "type": "function"
    },
    {
      "constant": true,
      "inputs": [
        {
          "name": "_gameName",
          "type": "bytes32"
        }
      ],
      "name": "getGameAddress",
      "outputs": [
        {
          "name": "",
          "type": "address"
        }
      ],
      "payable": false,
      "stateMutability": "view",
      "type": "function"
    },
    {
      "constant": false,
      "inputs": [
        {
          "name": "_gameName",
          "type": "bytes32"
        },
        {
          "name": "_gameType",
          "type": "bytes8"
        },
        {
          "name": "_gameAddress",
          "type": "address"
        }
      ],
      "name": "addGame",
      "outputs": [],
      "payable": false,
      "stateMutability": "nonpayable",
      "type": "function"
    },
    {
      "constant": true,
      "inputs": [],
      "name": "casino",
      "outputs": [
        {
          "name": "",
          "type": "address"
        }
      ],
      "payable": false,
      "stateMutability": "view",
      "type": "function"
    },
    {
      "constant": true,
      "inputs": [],
      "name": "getGames",
      "outputs": [
        {
          "name": "",
          "type": "bytes32[]"
        }
      ],
      "payable": false,
      "stateMutability": "view",
      "type": "function"
    },
    {
      "constant": false,
      "inputs": [
        {
          "name": "_casinoAddress",
          "type": "address"
        }
      ],
      "name": "setCasino",
      "outputs": [],
      "payable": false,
      "stateMutability": "nonpayable",
      "type": "function"
    },
    {
      "constant": false,
      "inputs": [
        {
          "name": "_name",
          "type": "bytes32"
        }
      ],
      "name": "removeGame",
      "outputs": [],
      "payable": false,
      "stateMutability": "nonpayable",
      "type": "function"
    },
    {
      "anonymous": false,
      "inputs": [
        {
          "indexed": false,
          "name": "addr",
          "type": "address"
        },
        {
          "indexed": false,
          "name": "roleName",
          "type": "string"
        }
      ],
      "name": "RoleAdded",
      "type": "event"
    },
    {
      "anonymous": false,
      "inputs": [
        {
          "indexed": false,
          "name": "addr",
          "type": "address"
        },
        {
          "indexed": false,
          "name": "roleName",
          "type": "string"
        }
      ],
      "name": "RoleRemoved",
      "type": "event"
    }
  ],
  "bytecode": "0x6080604052610052336040805190810160405280600781526020017f6d616e6167657200000000000000000000000000000000000000000000000000815250610057640100000000026401000000009004565b610213565b6100e1826000836040518082805190602001908083835b602083101515610093578051825260208201915060208101905060208303925061006e565b6001836020036101000a03801982511681845116808217855250505050505090500191505090815260200160405180910390206101b564010000000002610b62179091906401000000009004565b7fbfec83d64eaa953f2708271a023ab9ee82057f8f3578d548c1a4ba0b5b7004898282604051808373ffffffffffffffffffffffffffffffffffffffff1673ffffffffffffffffffffffffffffffffffffffff16815260200180602001828103825283818151815260200191508051906020019080838360005b8381101561017657808201518184015260208101905061015b565b50505050905090810190601f1680156101a35780820380516001836020036101000a031916815260200191505b50935050505060405180910390a15050565b60018260000160008373ffffffffffffffffffffffffffffffffffffffff1673ffffffffffffffffffffffffffffffffffffffff16815260200190815260200160002060006101000a81548160ff0219169083151502179055505050565b610bec806102226000396000f30060806040526004361061008e576000357c0100000000000000000000000000000000000000000000000000000000900463ffffffff1680630988ca8c14610093578063217fe6c61461011c5780637c038fa1146101bd578063844168781461022e5780639403e8dd146102a4578063c04c5947146102fb578063d7b9cc2414610367578063eb2b8db0146103aa575b600080fd5b34801561009f57600080fd5b5061011a600480360381019080803573ffffffffffffffffffffffffffffffffffffffff169060200190929190803590602001908201803590602001908080601f01602080910402602001604051908101604052809392919081815260200183838082843782019150505050505091929192905050506103db565b005b34801561012857600080fd5b506101a3600480360381019080803573ffffffffffffffffffffffffffffffffffffffff169060200190929190803590602001908201803590602001908080601f016020809104026020016040519081016040528093929190818152602001838380828437820191505050505050919291929050505061045c565b604051808215151515815260200191505060405180910390f35b3480156101c957600080fd5b506101ec60048036038101908080356000191690602001909291905050506104e3565b604051808273ffffffffffffffffffffffffffffffffffffffff1673ffffffffffffffffffffffffffffffffffffffff16815260200191505060405180910390f35b34801561023a57600080fd5b506102a26004803603810190808035600019169060200190929190803577ffffffffffffffffffffffffffffffffffffffffffffffff19169060200190929190803573ffffffffffffffffffffffffffffffffffffffff16906020019092919050505061052b565b005b3480156102b057600080fd5b506102b961077e565b604051808273ffffffffffffffffffffffffffffffffffffffff1673ffffffffffffffffffffffffffffffffffffffff16815260200191505060405180910390f35b34801561030757600080fd5b506103106107a4565b6040518080602001828103825283818151815260200191508051906020019060200280838360005b83811015610353578082015181840152602081019050610338565b505050509050019250505060405180910390f35b34801561037357600080fd5b506103a8600480360381019080803573ffffffffffffffffffffffffffffffffffffffff169060200190929190505050610800565b005b3480156103b657600080fd5b506103d960048036038101908080356000191690602001909291905050506108c1565b005b610458826000836040518082805190602001908083835b60208310151561041757805182526020820191506020810190506020830392506103f2565b6001836020036101000a0380198251168184511680821785525050505050509050019150509081526020016040518091039020610a8690919063ffffffff16565b5050565b60006104db836000846040518082805190602001908083835b60208310151561049a5780518252602082019150602081019050602083039250610475565b6001836020036101000a0380198251168184511680821785525050505050509050019150509081526020016040518091039020610a9f90919063ffffffff16565b905092915050565b600060026000836000191660001916815260200190815260200160002060010160009054906101000a900473ffffffffffffffffffffffffffffffffffffffff169050919050565b600073ffffffffffffffffffffffffffffffffffffffff16600160009054906101000a900473ffffffffffffffffffffffffffffffffffffffff1673ffffffffffffffffffffffffffffffffffffffff161415151561058957600080fd5b6040805190810160405280600781526020017f6d616e61676572000000000000000000000000000000000000000000000000008152506105c933826103db565b60026000856000191660001916815260200190815260200160002060030160089054906101000a900460ff1615151561060157600080fd5b60a06040519081016040528060038054905081526020018373ffffffffffffffffffffffffffffffffffffffff168152602001856000191681526020018477ffffffffffffffffffffffffffffffffffffffffffffffff19168152602001600115158152506002600086600019166000191681526020019081526020016000206000820151816000015560208201518160010160006101000a81548173ffffffffffffffffffffffffffffffffffffffff021916908373ffffffffffffffffffffffffffffffffffffffff1602179055506040820151816002019060001916905560608201518160030160006101000a81548167ffffffffffffffff021916908378010000000000000000000000000000000000000000000000009004021790555060808201518160030160086101000a81548160ff021916908315150217905550905050600384908060018154018082558091505090600182039060005260206000200160009091929091909150906000191690555050505050565b600160009054906101000a900473ffffffffffffffffffffffffffffffffffffffff1681565b606060038054806020026020016040519081016040528092919081815260200182805480156107f657602002820191906000526020600020905b815460001916815260200190600101908083116107de575b5050505050905090565b6040805190810160405280600781526020017f6d616e616765720000000000000000000000000000000000000000000000000081525061084033826103db565b600073ffffffffffffffffffffffffffffffffffffffff168273ffffffffffffffffffffffffffffffffffffffff161415151561087c57600080fd5b81600160006101000a81548173ffffffffffffffffffffffffffffffffffffffff021916908373ffffffffffffffffffffffffffffffffffffffff1602179055505050565b6000806040805190810160405280600781526020017f6d616e616765720000000000000000000000000000000000000000000000000081525061090433826103db565b60026000856000191660001916815260200190815260200160002060030160089054906101000a900460ff16151561093b57600080fd5b60026000856000191660001916815260200190815260200160002060000154925060036109776001600380549050610af890919063ffffffff16565b81548110151561098357fe5b90600052602060002001549150816003848154811015156109a057fe5b90600052602060002001816000191690555082600260008460001916600019168152602001908152602001600020600001819055506109ee6001600380549050610af890919063ffffffff16565b6003816109fb9190610b11565b506002600085600019166000191681526020019081526020016000206000808201600090556001820160006101000a81549073ffffffffffffffffffffffffffffffffffffffff021916905560028201600090556003820160006101000a81549067ffffffffffffffff02191690556003820160086101000a81549060ff0219169055505050505050565b610a908282610a9f565b1515610a9b57600080fd5b5050565b60008260000160008373ffffffffffffffffffffffffffffffffffffffff1673ffffffffffffffffffffffffffffffffffffffff16815260200190815260200160002060009054906101000a900460ff16905092915050565b6000828211151515610b0657fe5b818303905092915050565b815481835581811115610b3857818360005260206000209182019101610b379190610b3d565b5b505050565b610b5f91905b80821115610b5b576000816000905550600101610b43565b5090565b90565b60018260000160008373ffffffffffffffffffffffffffffffffffffffff1673ffffffffffffffffffffffffffffffffffffffff16815260200190815260200160002060006101000a81548160ff02191690831515021790555050505600a165627a7a72305820849946f1066f3c445d55525610b8de56ad13d7c33c9a7b6242885a3b3395f8310029",
  "source": "pragma solidity ^0.4.23;\n\nimport \"./GamblingHall.sol\";\n\n/**\n * @title FirstGamblingHall\n * @author mariogastegger\n * @dev An actual gambling hall.\n */\ncontract FirstGamblingHall is GamblingHall {\n\n    /*\n     * Events.\n     */\n\n    /*\n     * Fields.\n     */\n\n    /*\n     * Modifiers.\n     */\n\n    /*\n     * Business functions.\n     */\n\n    /*\n     * Maintenance functions.\n     */\n}\n",
  "sourcePath": "/home/mariogastegger/1_private/study/repository/SC_Ass0.3/dapp/contracts/game/FirstGamblingHall.sol",
  "compiler": {
    "name": "solc",
    "version": "0.4.23+commit.124ca40d.Emscripten.clang"
  },
  "schemaVersion": "2.0.0",
  "updatedAt": "2018-06-18T19:28:54.727Z"
}