{
  "contractName": "GamblingHall",
  "abi": [
    {
      "constant": true,
      "inputs": [
        {
          "name": "addr",
          "type": "address"
        },
        {
          "name": "roleName",
          "type": "string"
        }
      ],
      "name": "checkRole",
      "outputs": [],
      "payable": false,
      "stateMutability": "view",
      "type": "function"
    },
    {
      "constant": true,
      "inputs": [
        {
          "name": "addr",
          "type": "address"
        },
        {
          "name": "roleName",
          "type": "string"
        }
      ],
      "name": "hasRole",
      "outputs": [
        {
          "name": "",
          "type": "bool"
        }
      ],
      "payable": false,
      "stateMutability": "view",
      "type": "function"
    },
    {
      "inputs": [
        {
          "name": "_admin",
          "type": "address"
        }
      ],
      "payable": false,
      "stateMutability": "nonpayable",
      "type": "constructor"
    },
    {
      "anonymous": false,
      "inputs": [
        {
          "indexed": false,
          "name": "addr",
          "type": "address"
        },
        {
          "indexed": false,
          "name": "roleName",
          "type": "string"
        }
      ],
      "name": "RoleAdded",
      "type": "event"
    },
    {
      "anonymous": false,
      "inputs": [
        {
          "indexed": false,
          "name": "addr",
          "type": "address"
        },
        {
          "indexed": false,
          "name": "roleName",
          "type": "string"
        }
      ],
      "name": "RoleRemoved",
      "type": "event"
    },
    {
      "constant": false,
      "inputs": [
        {
          "name": "_gameName",
          "type": "bytes32"
        },
        {
          "name": "_gameType",
          "type": "bytes8"
        },
        {
          "name": "_gameAddress",
          "type": "address"
        }
      ],
      "name": "addGame",
      "outputs": [],
      "payable": false,
      "stateMutability": "nonpayable",
      "type": "function"
    },
    {
      "constant": false,
      "inputs": [
        {
          "name": "_name",
          "type": "bytes32"
        }
      ],
      "name": "removeGame",
      "outputs": [],
      "payable": false,
      "stateMutability": "nonpayable",
      "type": "function"
    },
    {
      "constant": true,
      "inputs": [],
      "name": "getGames",
      "outputs": [
        {
          "name": "",
          "type": "bytes32[]"
        }
      ],
      "payable": false,
      "stateMutability": "view",
      "type": "function"
    }
  ],
  "bytecode": "0x608060405234801561001057600080fd5b50604051602080610bc183398101806040528101908080519060200190929190505050600073ffffffffffffffffffffffffffffffffffffffff168173ffffffffffffffffffffffffffffffffffffffff161415151561006f57600080fd5b6100bd816040805190810160405280600581526020017f61646d696e0000000000000000000000000000000000000000000000000000008152506100c3640100000000026401000000009004565b5061027f565b61014d826000836040518082805190602001908083835b6020831015156100ff57805182526020820191506020810190506020830392506100da565b6001836020036101000a0380198251168184511680821785525050505050509050019150509081526020016040518091039020610221640100000000026108a9179091906401000000009004565b7fbfec83d64eaa953f2708271a023ab9ee82057f8f3578d548c1a4ba0b5b7004898282604051808373ffffffffffffffffffffffffffffffffffffffff1673ffffffffffffffffffffffffffffffffffffffff16815260200180602001828103825283818151815260200191508051906020019080838360005b838110156101e25780820151818401526020810190506101c7565b50505050905090810190601f16801561020f5780820380516001836020036101000a031916815260200191505b50935050505060405180910390a15050565b60018260000160008373ffffffffffffffffffffffffffffffffffffffff1673ffffffffffffffffffffffffffffffffffffffff16815260200190815260200160002060006101000a81548160ff0219169083151502179055505050565b6109338061028e6000396000f30060806040526004361061006d576000357c0100000000000000000000000000000000000000000000000000000000900463ffffffff1680630988ca8c14610072578063217fe6c6146100fb578063844168781461019c578063c04c594714610212578063eb2b8db01461027e575b600080fd5b34801561007e57600080fd5b506100f9600480360381019080803573ffffffffffffffffffffffffffffffffffffffff169060200190929190803590602001908201803590602001908080601f01602080910402602001604051908101604052809392919081815260200183838082843782019150505050505091929192905050506102af565b005b34801561010757600080fd5b50610182600480360381019080803573ffffffffffffffffffffffffffffffffffffffff169060200190929190803590602001908201803590602001908080601f0160208091040260200160405190810160405280939291908181526020018383808284378201915050505050509192919290505050610330565b604051808215151515815260200191505060405180910390f35b3480156101a857600080fd5b506102106004803603810190808035600019169060200190929190803577ffffffffffffffffffffffffffffffffffffffffffffffff19169060200190929190803573ffffffffffffffffffffffffffffffffffffffff1690602001909291905050506103b7565b005b34801561021e57600080fd5b506102276105ac565b6040518080602001828103825283818151815260200191508051906020019060200280838360005b8381101561026a57808201518184015260208101905061024f565b505050509050019250505060405180910390f35b34801561028a57600080fd5b506102ad6004803603810190808035600019169060200190929190505050610608565b005b61032c826000836040518082805190602001908083835b6020831015156102eb57805182526020820191506020810190506020830392506102c6565b6001836020036101000a03801982511681845116808217855250505050505090500191505090815260200160405180910390206107cd90919063ffffffff16565b5050565b60006103af836000846040518082805190602001908083835b60208310151561036e5780518252602082019150602081019050602083039250610349565b6001836020036101000a03801982511681845116808217855250505050505090500191505090815260200160405180910390206107e690919063ffffffff16565b905092915050565b6040805190810160405280600581526020017f61646d696e0000000000000000000000000000000000000000000000000000008152506103f733826102af565b60016000856000191660001916815260200190815260200160002060030160089054906101000a900460ff1615151561042f57600080fd5b60a06040519081016040528060028054905081526020018373ffffffffffffffffffffffffffffffffffffffff168152602001856000191681526020018477ffffffffffffffffffffffffffffffffffffffffffffffff19168152602001600115158152506001600086600019166000191681526020019081526020016000206000820151816000015560208201518160010160006101000a81548173ffffffffffffffffffffffffffffffffffffffff021916908373ffffffffffffffffffffffffffffffffffffffff1602179055506040820151816002019060001916905560608201518160030160006101000a81548167ffffffffffffffff021916908378010000000000000000000000000000000000000000000000009004021790555060808201518160030160086101000a81548160ff021916908315150217905550905050600284908060018154018082558091505090600182039060005260206000200160009091929091909150906000191690555050505050565b606060028054806020026020016040519081016040528092919081815260200182805480156105fe57602002820191906000526020600020905b815460001916815260200190600101908083116105e6575b5050505050905090565b6000806040805190810160405280600581526020017f61646d696e00000000000000000000000000000000000000000000000000000081525061064b33826102af565b60016000856000191660001916815260200190815260200160002060030160089054906101000a900460ff16151561068257600080fd5b60016000856000191660001916815260200190815260200160002060000154925060026106be600160028054905061083f90919063ffffffff16565b8154811015156106ca57fe5b90600052602060002001549150816002848154811015156106e757fe5b9060005260206000200181600019169055508260016000846000191660001916815260200190815260200160002060000181905550610735600160028054905061083f90919063ffffffff16565b6002816107429190610858565b506001600085600019166000191681526020019081526020016000206000808201600090556001820160006101000a81549073ffffffffffffffffffffffffffffffffffffffff021916905560028201600090556003820160006101000a81549067ffffffffffffffff02191690556003820160086101000a81549060ff0219169055505050505050565b6107d782826107e6565b15156107e257600080fd5b5050565b60008260000160008373ffffffffffffffffffffffffffffffffffffffff1673ffffffffffffffffffffffffffffffffffffffff16815260200190815260200160002060009054906101000a900460ff16905092915050565b600082821115151561084d57fe5b818303905092915050565b81548183558181111561087f5781836000526020600020918201910161087e9190610884565b5b505050565b6108a691905b808211156108a257600081600090555060010161088a565b5090565b90565b60018260000160008373ffffffffffffffffffffffffffffffffffffffff1673ffffffffffffffffffffffffffffffffffffffff16815260200190815260200160002060006101000a81548160ff02191690831515021790555050505600a165627a7a7230582045136e65a844d69b2b3f2f1488f0b04b94de782c139d0564b2396e0be0fdad5b0029",
  "source": "pragma solidity ^0.4.23;\nimport \"openzeppelin-solidity/contracts/ownership/rbac/RBAC.sol\";\nimport \"openzeppelin-solidity/contracts/math/SafeMath.sol\";\n\n/**\n * @title HasGames\n * @author mariogastegger\n * @dev Allows for a casino to host games.\n */\ncontract GamblingHall is RBAC {\n    using SafeMath for uint;\n\n\n    /*\n     * Events.\n     */\n\n    /*\n     * Fields.\n     */\n    string internal constant ROLE_ADMIN = \"admin\";\n\n    bytes8 internal constant GAME_TYPE_SLOTMACHINE = \"slotV1.0\";\n\n    /** @dev Mapping of game name to game info. */\n    mapping (bytes32 => GameInfo) nameGame;\n    /** @dev List of game names. */\n    bytes32[] gameNames;\n\n\n    address internal casinoAddress;\n\n    /**\n     * @title GameInfo\n     * @dev Holds information about a game.\n     */\n    struct GameInfo {\n        uint256 listPointer;\n        address gameAddress;\n        bytes32 gameName;\n        bytes8 gameType;\n        bool isPresent;\n    }\n\n    constructor(address _admin) {\n        require(_admin != address(0));\n\n        addRole(_admin, ROLE_ADMIN);\n    }\n\n    /*\n     * Business functions.\n     */\n\n    /**\n     * @dev Adds a game.\n     * @param _gameName the name of the game.\n     * @param _gameType the type of the game.\n     * @param _gameAddress the address of the game.\n     */\n    //TEST:\n    function addGame(bytes32 _gameName, bytes8 _gameType, address _gameAddress) external onlyRole(ROLE_ADMIN) {\n        //TODO check game interface...\n        //- same bank\n        //- type one of\n\n        require(!nameGame[_gameName].isPresent);\n\n        nameGame[_gameName] = GameInfo({\n            listPointer: gameNames.length,\n            gameName: _gameName,\n            gameType: _gameType,\n            gameAddress: _gameAddress,\n            isPresent: true\n        });\n        gameNames.push(_gameName);\n    }\n\n    /**\n     * @dev Removes a game.\n     * @param _name the name of the game to be removed.\n     */\n    //TEST:\n    function removeGame(bytes32 _name) external onlyRole(ROLE_ADMIN) {\n        //TODO\n        require(nameGame[_name].isPresent);\n\n        uint gameToDelete = nameGame[_name].listPointer;\n        bytes32 gameToMove = gameNames[gameNames.length.sub(1)];\n\n        //https://ethereum.stackexchange.com/a/13168/39566\n        //replace deleted game\n        gameNames[gameToDelete] = gameToMove;\n        nameGame[gameToMove].listPointer = gameToDelete;\n\n        gameNames.length = gameNames.length.sub(1);\n        delete nameGame[_name];\n    }\n\n    /**\n     * @return all games.\n     */\n    //TEST:\n    function getGames() external view returns (bytes32[]) {\n        return gameNames;\n    }\n}\n",
  "sourcePath": "/home/mariogastegger/1_private/study/repository/SC_Ass0.3/dapp/contracts/game/GamblingHall.sol",
  "compiler": {
    "name": "solc",
    "version": "0.4.23+commit.124ca40d.Emscripten.clang"
  },
  "schemaVersion": "2.0.0",
  "updatedAt": "2018-06-17T12:11:37.838Z"
}