{
  "contractName": "HasPhases",
  "abi": [
    {
      "constant": true,
      "inputs": [],
      "name": "durationCommitMin",
      "outputs": [
        {
          "name": "",
          "type": "uint8"
        }
      ],
      "payable": false,
      "stateMutability": "view",
      "type": "function"
    },
    {
      "constant": true,
      "inputs": [],
      "name": "durationRevealMin",
      "outputs": [
        {
          "name": "",
          "type": "uint8"
        }
      ],
      "payable": false,
      "stateMutability": "view",
      "type": "function"
    },
    {
      "constant": true,
      "inputs": [],
      "name": "durationClaimMin",
      "outputs": [
        {
          "name": "",
          "type": "uint8"
        }
      ],
      "payable": false,
      "stateMutability": "view",
      "type": "function"
    },
    {
      "constant": true,
      "inputs": [],
      "name": "durationClaimMax",
      "outputs": [
        {
          "name": "",
          "type": "uint8"
        }
      ],
      "payable": false,
      "stateMutability": "view",
      "type": "function"
    },
    {
      "constant": true,
      "inputs": [],
      "name": "durationCommitMax",
      "outputs": [
        {
          "name": "",
          "type": "uint8"
        }
      ],
      "payable": false,
      "stateMutability": "view",
      "type": "function"
    },
    {
      "constant": true,
      "inputs": [],
      "name": "durationRevealMax",
      "outputs": [
        {
          "name": "",
          "type": "uint8"
        }
      ],
      "payable": false,
      "stateMutability": "view",
      "type": "function"
    },
    {
      "anonymous": false,
      "inputs": [
        {
          "indexed": false,
          "name": "game",
          "type": "address"
        },
        {
          "indexed": false,
          "name": "blockCommit",
          "type": "uint256"
        },
        {
          "indexed": false,
          "name": "durationCommit",
          "type": "uint8"
        },
        {
          "indexed": false,
          "name": "blockReveal",
          "type": "uint256"
        },
        {
          "indexed": false,
          "name": "durationReveal",
          "type": "uint8"
        },
        {
          "indexed": false,
          "name": "blockClaim",
          "type": "uint256"
        },
        {
          "indexed": false,
          "name": "durationClaim",
          "type": "uint8"
        }
      ],
      "name": "CommitStarted",
      "type": "event"
    },
    {
      "anonymous": false,
      "inputs": [
        {
          "indexed": false,
          "name": "game",
          "type": "address"
        },
        {
          "indexed": false,
          "name": "blockReveal",
          "type": "uint256"
        },
        {
          "indexed": false,
          "name": "durationReveal",
          "type": "uint8"
        },
        {
          "indexed": false,
          "name": "blockClaim",
          "type": "uint256"
        },
        {
          "indexed": false,
          "name": "durationClaim",
          "type": "uint8"
        }
      ],
      "name": "RevealStarted",
      "type": "event"
    },
    {
      "anonymous": false,
      "inputs": [
        {
          "indexed": false,
          "name": "game",
          "type": "address"
        },
        {
          "indexed": false,
          "name": "blockClaim",
          "type": "uint256"
        },
        {
          "indexed": false,
          "name": "durationClaim",
          "type": "uint8"
        }
      ],
      "name": "ClaimStarted",
      "type": "event"
    },
    {
      "anonymous": false,
      "inputs": [
        {
          "indexed": false,
          "name": "game",
          "type": "address"
        }
      ],
      "name": "ClaimEnd",
      "type": "event"
    }
  ],
  "bytecode": "0x608060405234801561001057600080fd5b506101ed806100206000396000f300608060405260043610610078576000357c0100000000000000000000000000000000000000000000000000000000900463ffffffff168063297f01991461007d5780632cae81e1146100ae5780632d6efa2e146100df578063bf19bc9814610110578063cf7cd38614610141578063fc7b233314610172575b600080fd5b34801561008957600080fd5b506100926101a3565b604051808260ff1660ff16815260200191505060405180910390f35b3480156100ba57600080fd5b506100c36101a8565b604051808260ff1660ff16815260200191505060405180910390f35b3480156100eb57600080fd5b506100f46101ad565b604051808260ff1660ff16815260200191505060405180910390f35b34801561011c57600080fd5b506101256101b2565b604051808260ff1660ff16815260200191505060405180910390f35b34801561014d57600080fd5b506101566101b7565b604051808260ff1660ff16815260200191505060405180910390f35b34801561017e57600080fd5b506101876101bc565b604051808260ff1660ff16815260200191505060405180910390f35b600381565b600381565b600f81565b601481565b602881565b6014815600a165627a7a723058201de9b0073a9832c8d4d175d0b060369e60396813276c05635111f73cca5c70b80029",
  "source": "pragma solidity ^0.4.23;\n\nimport \"openzeppelin-solidity/contracts/math/SafeMath.sol\";\n\n/**\n * @title HasPhases\n * @author mariogastegger\n * @dev Timing for the phases of a game.\n * @dev Before the commit phase, participants start the game.\n * @dev The commit duration marks the duration in which participants can choose their move.\n * @dev The reveal duration marks the duration in which participants can reveal their move.\n * @dev The claim duration marks the duration in which participants can claim their prize.\n * @dev After the claim phase, a manager can end the game and claim all unclaimed prizes.\n */\ncontract HasPhases {\n    using SafeMath for uint256;\n\n\n    /** @dev Duration[s]= duration[block] * 15[s/block] = 40 * 15 = 600s = 10min */\n    uint8 public constant durationCommitMax = 40;\n    /** @dev Duration[s]= duration[block] * 15[s/block] = 3 * 15 = 45s */\n    uint8 public constant durationCommitMin = 3;\n\n    /** @dev Duration[s]= duration[block] * 15[s/block] = 20 * 15 = 300s = 5min */\n    uint8 public constant durationRevealMax = 20;\n    /** @dev Duration[s]= duration[block] * 15[s/block] = 3 * 15 = 45s */\n    uint8 public constant durationRevealMin = 3;\n\n    //TODO might not be necessary?!?!\n    /** @dev Duration[s]= duration[block] * 15[s/block] = 20 * 15 = 300s = 5min */\n    uint8 public constant durationClaimMax = 20;\n    /** @dev Duration[s]= duration[block] * 15[s/block] = 15 * 15 = 60s = 3min */\n    uint8 public constant durationClaimMin = 15;\n\n\n    struct Phase {\n        uint256 blockCommit;\n        uint256 blockReveal;\n        uint256 blockClaim;\n\n        uint8 durationCommit;\n        uint8 durationReveal;\n        uint8 durationClaim;\n    }\n\n    Phase internal gamePhase;\n\n    /*\n     * Events.\n     */\n\n    /**\n     * @dev Start of the commit phase.\n     * @dev A player can enter the game during this phase.\n     * @param game The game.\n     * @param blockCommit The block number when commit phase started.\n     * @param durationCommit How long it is possible to commit.\n     * @param blockReveal The block number when the reveal phase started.\n     * @param durationReveal How long it is possible to reveal.\n     * @param blockClaim The block number when the claim phase started.\n     * @param durationClaim How long it is possible to reveal.\n     */\n    event CommitStarted(address game,\n        uint256 blockCommit, uint8 durationCommit,\n        uint256 blockReveal, uint8 durationReveal,\n        uint256 blockClaim, uint8 durationClaim);\n\n    /**\n     * @dev Start of the reveal phase.\n     * @dev A player can reveal his tip during this phase.\n     * @dev If a player does not reveal, he looses his stake.\n     * @param game The game.\n     * @param blockReveal The block number when the reveal phase started.\n     * @param durationReveal How long it is possible to reveal.\n     * @param blockClaim The block number when the claim phase started.\n     * @param durationClaim How long it is possible to reveal.\n     */\n    event RevealStarted(address game,\n        uint256 blockReveal, uint8 durationReveal,\n        uint256 blockClaim, uint8 durationClaim);\n\n    /**\n     * @dev Start of the claim phase.\n     * @dev A player has to claim his prize during this phase.\n     * @dev If a player does not claim his prize, the bank keeps it.\n     * @param game The game.\n     * @param blockClaim The block number when the claim phase started.\n     * @param durationClaim How long it is possible to reveal.\n     */\n    event ClaimStarted(address game,\n        uint256 blockClaim, uint8 durationClaim);\n\n    /**\n     * @dev End of the claim phase.\n     * @dev If a player has not claimed his prizce until now, the bank keeps it.\n     * @param game The game.\n     */\n    event ClaimEnd(address game);\n\n\n    /*\n     * Modifiers.\n     */\n\n    /**\n     * @dev Requires the durations to be within the defined limits.\n     * @param _durationCommit The duration of the commit phase as number of blocks.\n     * @param _durationReveal The duration of the reveal phase as number of blocks.\n     * @param _durationClaim The duration of the claim phase as number of blocks.\n     */\n    //TEST:\n    modifier validDurations(uint8 _durationCommit, uint8 _durationReveal, uint8 _durationClaim) {\n        require(durationCommitMin <= _durationCommit);\n        require(_durationCommit <= durationCommitMax);\n\n        require(durationRevealMin <= _durationReveal);\n        require(_durationReveal <= durationRevealMax);\n\n        require(durationClaimMin <= _durationClaim);\n        require(_durationClaim <= durationClaimMax);\n        _;\n    }\n\n    /**\n     * @dev Requires the phase to be in its initial state/non-existent.\n     */\n    //TEST:\n    modifier canStart() {\n        require(gamePhase.blockCommit == 0);\n        require(gamePhase.blockReveal == 0);\n        require(gamePhase.blockClaim == 0);\n        require(gamePhase.durationCommit == 0);\n        require(gamePhase.durationReveal == 0);\n        require(gamePhase.durationClaim == 0);\n        _;\n    }\n\n    /**\n     * @dev Requires to be in the commit phase.\n     */\n    //TEST:\n    modifier canCommit() {\n        require(inPhaseCommit());\n        _;\n    }\n\n    /**\n     * @dev Requires to be in the reveal phase.\n     */\n    //TEST:\n    modifier canReveal() {\n        require(inPhaseReveal());\n        _;\n    }\n\n    /**\n     * @dev Requires to be in the claim phase.\n     */\n    //TEST:\n    modifier canClaim() {\n        require(inPhaseClaim());\n        _;\n    }\n\n    /**\n     * @dev Requires the claim phase to be over.\n     */\n    //TEST:\n    modifier canEnd() {\n        require(gamePhase.blockCommit != 0);\n        require(gamePhase.blockReveal != 0);\n        require(gamePhase.blockClaim != 0);\n        require(gamePhase.blockClaim.add(gamePhase.durationClaim) < block.number);\n        _;\n    }\n\n    /**\n     * @dev Requires the claim phase to be over.\n     */\n    //TEST:\n    modifier canCancel() {\n        require(gamePhase.blockCommit != 0);\n        require(gamePhase.blockClaim.add(gamePhase.durationClaim) < block.number);\n        _;\n    }\n\n\n    /*\n     * Business logic.\n     */\n\n    /**\n     * @dev Starts the game by specifying the duration.\n     * @param _durationCommit The duration of the commit phase as number of blocks.\n     * @param _durationReveal The duration of the reveal phase as number of blocks.\n     * @param _durationClaim The duration of the claim phase as number of blocks.\n     * @return true on success, otherwise false.\n     */\n    //TEST:\n    function startCommit(uint8 _durationCommit, uint8 _durationReveal, uint8 _durationClaim) internal\n    canStart validDurations(_durationCommit, _durationReveal, _durationClaim) returns (bool) {\n        gamePhase = Phase({\n            blockCommit: block.number,\n            blockReveal: 0,\n            blockClaim: 0,\n            durationCommit: _durationCommit,\n            durationReveal: _durationReveal,\n            durationClaim: _durationClaim\n        });\n        return true;\n    }\n\n    /**\n     * @dev Starts the reveal phase.\n     * @return true on success, otherwise false.\n     */\n    //TEST:\n    function startReveal() internal canReveal returns (bool) {\n        gamePhase.blockReveal = block.number;\n        return true;\n    }\n\n    /**\n     * @dev Starts the reveal phase.\n     * @return true on success, otherwise false.\n     */\n    //TEST:\n    function startClaim() internal canClaim returns (bool) {\n        gamePhase.blockReveal = block.number;\n        return true;\n    }\n\n    /**\n     * @dev Ends the reveal phase. Resets the game.\n     * @return true on success, otherwise false.\n     */\n    //TEST:\n    function endClaim() internal canEnd returns (bool) {\n        delete gamePhase;\n        return true;\n    }\n\n    /**\n     * @return true if in the commit phase.\n     */\n    //TEST:\n    function inPhaseCommit() internal returns (bool) {\n        if(gamePhase.blockCommit != 0\n        && gamePhase.blockReveal == 0\n        && gamePhase.blockClaim == 0\n        && block.number <= gamePhase.blockCommit.add(gamePhase.durationCommit)) {\n            return true;\n        } else {\n            return false;\n        }\n    }\n\n    /**\n     * @return true if in the reveal phase.\n     */\n    //TEST:\n    function inPhaseReveal() internal returns (bool) {\n        if(gamePhase.blockCommit != 0\n        && gamePhase.blockReveal != 0\n        && gamePhase.blockClaim == 0\n        && block.number <= gamePhase.blockReveal.add(gamePhase.durationReveal)) {\n            return true;\n        } else {\n            return false;\n        }\n    }\n\n    /**\n     * @return true if in the claim phase.\n     */\n    //TEST:\n    function inPhaseClaim() internal returns (bool) {\n        if(gamePhase.blockCommit != 0\n        && gamePhase.blockReveal != 0\n        && gamePhase.blockClaim != 0\n        && block.number <= gamePhase.blockClaim.add(gamePhase.durationClaim)) {\n            return true;\n        } else {\n            return false;\n        }\n    }\n}\n",
  "sourcePath": "/home/mariogastegger/1_private/study/repository/SC_Ass0.3/dapp/contracts/timing/HasPhases.sol",
  "compiler": {
    "name": "solc",
    "version": "0.4.23+commit.124ca40d.Emscripten.clang"
  },
  "schemaVersion": "2.0.0",
  "updatedAt": "2018-06-17T12:11:36.309Z"
}