{
  "contractName": "NewVegas",
  "abi": [
    {
      "constant": true,
      "inputs": [],
      "name": "name",
      "outputs": [
        {
          "name": "",
          "type": "string"
        }
      ],
      "payable": false,
      "stateMutability": "view",
      "type": "function"
    },
    {
      "constant": true,
      "inputs": [
        {
          "name": "addr",
          "type": "address"
        },
        {
          "name": "roleName",
          "type": "string"
        }
      ],
      "name": "checkRole",
      "outputs": [],
      "payable": false,
      "stateMutability": "view",
      "type": "function"
    },
    {
      "constant": false,
      "inputs": [
        {
          "name": "_tokenAddress",
          "type": "address"
        }
      ],
      "name": "setToken",
      "outputs": [],
      "payable": false,
      "stateMutability": "nonpayable",
      "type": "function"
    },
    {
      "constant": true,
      "inputs": [
        {
          "name": "addr",
          "type": "address"
        },
        {
          "name": "roleName",
          "type": "string"
        }
      ],
      "name": "hasRole",
      "outputs": [
        {
          "name": "",
          "type": "bool"
        }
      ],
      "payable": false,
      "stateMutability": "view",
      "type": "function"
    },
    {
      "constant": false,
      "inputs": [
        {
          "name": "_manager",
          "type": "address"
        }
      ],
      "name": "addManager",
      "outputs": [],
      "payable": false,
      "stateMutability": "nonpayable",
      "type": "function"
    },
    {
      "constant": true,
      "inputs": [],
      "name": "exchangeFee",
      "outputs": [
        {
          "name": "",
          "type": "uint256"
        }
      ],
      "payable": false,
      "stateMutability": "view",
      "type": "function"
    },
    {
      "constant": false,
      "inputs": [],
      "name": "close",
      "outputs": [],
      "payable": false,
      "stateMutability": "nonpayable",
      "type": "function"
    },
    {
      "constant": false,
      "inputs": [
        {
          "name": "_sender",
          "type": "address"
        },
        {
          "name": "_origin",
          "type": "address"
        },
        {
          "name": "_value",
          "type": "uint256"
        },
        {
          "name": "_data",
          "type": "bytes"
        }
      ],
      "name": "tokenFallback",
      "outputs": [
        {
          "name": "success",
          "type": "bool"
        }
      ],
      "payable": false,
      "stateMutability": "nonpayable",
      "type": "function"
    },
    {
      "constant": true,
      "inputs": [],
      "name": "opened",
      "outputs": [
        {
          "name": "",
          "type": "bool"
        }
      ],
      "payable": false,
      "stateMutability": "view",
      "type": "function"
    },
    {
      "constant": false,
      "inputs": [],
      "name": "payout",
      "outputs": [],
      "payable": false,
      "stateMutability": "nonpayable",
      "type": "function"
    },
    {
      "constant": false,
      "inputs": [
        {
          "name": "_tokenPrice",
          "type": "uint256"
        }
      ],
      "name": "setTokenPrice",
      "outputs": [],
      "payable": false,
      "stateMutability": "nonpayable",
      "type": "function"
    },
    {
      "constant": true,
      "inputs": [],
      "name": "tokenPrice",
      "outputs": [
        {
          "name": "",
          "type": "uint256"
        }
      ],
      "payable": false,
      "stateMutability": "view",
      "type": "function"
    },
    {
      "constant": true,
      "inputs": [],
      "name": "gamblingHall",
      "outputs": [
        {
          "name": "",
          "type": "address"
        }
      ],
      "payable": false,
      "stateMutability": "view",
      "type": "function"
    },
    {
      "constant": false,
      "inputs": [
        {
          "name": "_exchangeFee",
          "type": "uint256"
        }
      ],
      "name": "setExchangeFee",
      "outputs": [],
      "payable": false,
      "stateMutability": "nonpayable",
      "type": "function"
    },
    {
      "constant": false,
      "inputs": [
        {
          "name": "_manager",
          "type": "address"
        }
      ],
      "name": "removeManager",
      "outputs": [],
      "payable": false,
      "stateMutability": "nonpayable",
      "type": "function"
    },
    {
      "constant": false,
      "inputs": [
        {
          "name": "_customer",
          "type": "address"
        },
        {
          "name": "_prize",
          "type": "uint256"
        },
        {
          "name": "_gameName",
          "type": "bytes32"
        }
      ],
      "name": "payOutWin",
      "outputs": [
        {
          "name": "success",
          "type": "bool"
        }
      ],
      "payable": false,
      "stateMutability": "nonpayable",
      "type": "function"
    },
    {
      "constant": false,
      "inputs": [
        {
          "name": "_gamblingHallAddress",
          "type": "address"
        }
      ],
      "name": "setGamingHall",
      "outputs": [],
      "payable": false,
      "stateMutability": "nonpayable",
      "type": "function"
    },
    {
      "constant": true,
      "inputs": [],
      "name": "token",
      "outputs": [
        {
          "name": "",
          "type": "address"
        }
      ],
      "payable": false,
      "stateMutability": "view",
      "type": "function"
    },
    {
      "constant": false,
      "inputs": [],
      "name": "open",
      "outputs": [],
      "payable": false,
      "stateMutability": "nonpayable",
      "type": "function"
    },
    {
      "inputs": [
        {
          "name": "_tokenAddress",
          "type": "address"
        },
        {
          "name": "_gamingHallAddress",
          "type": "address"
        },
        {
          "name": "_tokenPrice",
          "type": "uint256"
        },
        {
          "name": "_exchangeFee",
          "type": "uint256"
        }
      ],
      "payable": true,
      "stateMutability": "payable",
      "type": "constructor"
    },
    {
      "payable": true,
      "stateMutability": "payable",
      "type": "fallback"
    },
    {
      "anonymous": false,
      "inputs": [
        {
          "indexed": false,
          "name": "_sender",
          "type": "address"
        },
        {
          "indexed": false,
          "name": "_origin",
          "type": "address"
        },
        {
          "indexed": false,
          "name": "_value",
          "type": "uint256"
        },
        {
          "indexed": false,
          "name": "_data",
          "type": "bytes"
        }
      ],
      "name": "PaymentReceived",
      "type": "event"
    },
    {
      "anonymous": false,
      "inputs": [
        {
          "indexed": false,
          "name": "_owner",
          "type": "address"
        },
        {
          "indexed": false,
          "name": "_value",
          "type": "uint256"
        }
      ],
      "name": "OwnerPaidOut",
      "type": "event"
    },
    {
      "anonymous": false,
      "inputs": [
        {
          "indexed": false,
          "name": "_customer",
          "type": "address"
        },
        {
          "indexed": false,
          "name": "_value",
          "type": "uint256"
        }
      ],
      "name": "CustomerPaidOut",
      "type": "event"
    },
    {
      "anonymous": false,
      "inputs": [
        {
          "indexed": false,
          "name": "_customer",
          "type": "address"
        },
        {
          "indexed": false,
          "name": "_tokens",
          "type": "uint256"
        }
      ],
      "name": "CustomerBoughtIn",
      "type": "event"
    },
    {
      "anonymous": false,
      "inputs": [
        {
          "indexed": false,
          "name": "_customer",
          "type": "address"
        },
        {
          "indexed": false,
          "name": "_value",
          "type": "uint256"
        },
        {
          "indexed": false,
          "name": "_game",
          "type": "bytes32"
        }
      ],
      "name": "CustomerClaimed",
      "type": "event"
    },
    {
      "anonymous": false,
      "inputs": [],
      "name": "Opened",
      "type": "event"
    },
    {
      "anonymous": false,
      "inputs": [],
      "name": "Closed",
      "type": "event"
    },
    {
      "anonymous": false,
      "inputs": [
        {
          "indexed": false,
          "name": "_newBalance",
          "type": "uint256"
        }
      ],
      "name": "EtherBalanceChanged",
      "type": "event"
    },
    {
      "anonymous": false,
      "inputs": [
        {
          "indexed": false,
          "name": "_newTokenBalance",
          "type": "uint256"
        }
      ],
      "name": "TokenBalanceChanged",
      "type": "event"
    },
    {
      "anonymous": false,
      "inputs": [
        {
          "indexed": false,
          "name": "_newExchangeFee",
          "type": "uint256"
        }
      ],
      "name": "ExchangeFeeChanged",
      "type": "event"
    },
    {
      "anonymous": false,
      "inputs": [
        {
          "indexed": false,
          "name": "_newGamblingHall",
          "type": "address"
        }
      ],
      "name": "GamblingHallChanged",
      "type": "event"
    },
    {
      "anonymous": false,
      "inputs": [
        {
          "indexed": false,
          "name": "_newToken",
          "type": "address"
        }
      ],
      "name": "TokenChanged",
      "type": "event"
    },
    {
      "anonymous": false,
      "inputs": [
        {
          "indexed": false,
          "name": "_newTokenPrice",
          "type": "uint256"
        }
      ],
      "name": "TokenPriceChangedChanged",
      "type": "event"
    },
    {
      "anonymous": false,
      "inputs": [
        {
          "indexed": false,
          "name": "addr",
          "type": "address"
        },
        {
          "indexed": false,
          "name": "roleName",
          "type": "string"
        }
      ],
      "name": "RoleAdded",
      "type": "event"
    },
    {
      "anonymous": false,
      "inputs": [
        {
          "indexed": false,
          "name": "addr",
          "type": "address"
        },
        {
          "indexed": false,
          "name": "roleName",
          "type": "string"
        }
      ],
      "name": "RoleRemoved",
      "type": "event"
    },
    {
      "constant": false,
      "inputs": [],
      "name": "buy",
      "outputs": [],
      "payable": true,
      "stateMutability": "payable",
      "type": "function"
    },
    {
      "constant": false,
      "inputs": [],
      "name": "cashout",
      "outputs": [],
      "payable": true,
      "stateMutability": "payable",
      "type": "function"
    }
  ],
  "bytecode": "0x608060405260405160808062002d2c8339810180604052810190808051906020019092919080519060200190929190805190602001909291908051906020019092919050505083838383600073ffffffffffffffffffffffffffffffffffffffff168473ffffffffffffffffffffffffffffffffffffffff16141515156200008657600080fd5b600073ffffffffffffffffffffffffffffffffffffffff168373ffffffffffffffffffffffffffffffffffffffff1614151515620000c357600080fd5b600082111515620000d357600080fd5b83600260006101000a81548173ffffffffffffffffffffffffffffffffffffffff021916908373ffffffffffffffffffffffffffffffffffffffff16021790555082600360006101000a81548173ffffffffffffffffffffffffffffffffffffffff021916908373ffffffffffffffffffffffffffffffffffffffff1602179055506000600360146101000a81548160ff0219169083151502179055508160048190555080600581905550620001ce336040805190810160405280600581526020017f6f776e6572000000000000000000000000000000000000000000000000000000815250620003a8640100000000026401000000009004565b6200021e336040805190810160405280600781526020017f6d616e6167657200000000000000000000000000000000000000000000000000815250620003a8640100000000026401000000009004565b505050503462000342600454600260009054906101000a900473ffffffffffffffffffffffffffffffffffffffff1673ffffffffffffffffffffffffffffffffffffffff166370a08231306040518263ffffffff167c0100000000000000000000000000000000000000000000000000000000028152600401808273ffffffffffffffffffffffffffffffffffffffff1673ffffffffffffffffffffffffffffffffffffffff168152602001915050602060405180830381600087803b158015620002e857600080fd5b505af1158015620002fd573d6000803e3d6000fd5b505050506040513d60208110156200031457600080fd5b81019080805190602001909291905050506200050e6401000000000262001c43179091906401000000009004565b111515156200035057600080fd5b6040805190810160405280600981526020017f4e65772056656761730000000000000000000000000000000000000000000000815250600190805190602001906200039d929190620005a8565b505050505062000657565b62000437826000836040518082805190602001908083835b602083101515620003e75780518252602082019150602081019050602083039250620003c0565b6001836020036101000a03801982511681845116808217855250505050505090500191505090815260200160405180910390206200054a64010000000002620025ae179091906401000000009004565b7fbfec83d64eaa953f2708271a023ab9ee82057f8f3578d548c1a4ba0b5b7004898282604051808373ffffffffffffffffffffffffffffffffffffffff1673ffffffffffffffffffffffffffffffffffffffff16815260200180602001828103825283818151815260200191508051906020019080838360005b83811015620004ce578082015181840152602081019050620004b1565b50505050905090810190601f168015620004fc5780820380516001836020036101000a031916815260200191505b50935050505060405180910390a15050565b60008083141562000523576000905062000544565b81830290508183828115156200053557fe5b041415156200054057fe5b8090505b92915050565b60018260000160008373ffffffffffffffffffffffffffffffffffffffff1673ffffffffffffffffffffffffffffffffffffffff16815260200190815260200160002060006101000a81548160ff0219169083151502179055505050565b828054600181600116156101000203166002900490600052602060002090601f016020900481019282601f10620005eb57805160ff19168380011785556200061c565b828001600101855582156200061c579182015b828111156200061b578251825591602001919060010190620005fe565b5b5090506200062b91906200062f565b5090565b6200065491905b808211156200065057600081600090555060010162000636565b5090565b90565b6126c580620006676000396000f30060806040526004361061011d576000357c0100000000000000000000000000000000000000000000000000000000900463ffffffff16806306fdde031461016d5780630988ca8c146101fd578063144fa6d714610286578063217fe6c6146102c95780632d06177a1461036a5780632ecd3be4146103ad57806343d726d6146103d85780634c123019146103ef5780635f88eade146104ba57806363bd1d4a146104e95780636a61e5fc146105005780637ff9b5961461052d57806384054d3d146105585780639673c8fa146105625780639df8cc7b146105b9578063a6f2ae3a146105e6578063ac18de43146105f0578063c4b0eb0a14610633578063d26b9dad146106a6578063fc0c546a146106e9578063fcfff16f14610740575b7f5b380e44b2718e0f6646684aa0031a2fbe295724ea98c09a79273359ff478b573073ffffffffffffffffffffffffffffffffffffffff16316040518082815260200191505060405180910390a1005b34801561017957600080fd5b50610182610757565b6040518080602001828103825283818151815260200191508051906020019080838360005b838110156101c25780820151818401526020810190506101a7565b50505050905090810190601f1680156101ef5780820380516001836020036101000a031916815260200191505b509250505060405180910390f35b34801561020957600080fd5b50610284600480360381019080803573ffffffffffffffffffffffffffffffffffffffff169060200190929190803590602001908201803590602001908080601f01602080910402602001604051908101604052809392919081815260200183838082843782019150505050505091929192905050506107f5565b005b34801561029257600080fd5b506102c7600480360381019080803573ffffffffffffffffffffffffffffffffffffffff169060200190929190505050610876565b005b3480156102d557600080fd5b50610350600480360381019080803573ffffffffffffffffffffffffffffffffffffffff169060200190929190803590602001908201803590602001908080601f0160208091040260200160405190810160405280939291908181526020018383808284378201915050505050509192919290505050610ae4565b604051808215151515815260200191505060405180910390f35b34801561037657600080fd5b506103ab600480360381019080803573ffffffffffffffffffffffffffffffffffffffff169060200190929190505050610b6b565b005b3480156103b957600080fd5b506103c2610c2a565b6040518082815260200191505060405180910390f35b3480156103e457600080fd5b506103ed610c30565b005b3480156103fb57600080fd5b506104a0600480360381019080803573ffffffffffffffffffffffffffffffffffffffff169060200190929190803573ffffffffffffffffffffffffffffffffffffffff16906020019092919080359060200190929190803590602001908201803590602001908080601f0160208091040260200160405190810160405280939291908181526020018383808284378201915050505050509192919290505050610cd5565b604051808215151515815260200191505060405180910390f35b3480156104c657600080fd5b506104cf6110fb565b604051808215151515815260200191505060405180910390f35b3480156104f557600080fd5b506104fe61110e565b005b34801561050c57600080fd5b5061052b6004803603810190808035906020019092919050505061128a565b005b34801561053957600080fd5b50610542611339565b6040518082815260200191505060405180910390f35b61056061133f565b005b34801561056e57600080fd5b50610577611352565b604051808273ffffffffffffffffffffffffffffffffffffffff1673ffffffffffffffffffffffffffffffffffffffff16815260200191505060405180910390f35b3480156105c557600080fd5b506105e460048036038101908080359060200190929190505050611378565b005b6105ee611418565b005b3480156105fc57600080fd5b50610631600480360381019080803573ffffffffffffffffffffffffffffffffffffffff16906020019092919050505061142b565b005b34801561063f57600080fd5b5061068c600480360381019080803573ffffffffffffffffffffffffffffffffffffffff1690602001909291908035906020019092919080356000191690602001909291905050506114ae565b604051808215151515815260200191505060405180910390f35b3480156106b257600080fd5b506106e7600480360381019080803573ffffffffffffffffffffffffffffffffffffffff169060200190929190505050611816565b005b3480156106f557600080fd5b506106fe611956565b604051808273ffffffffffffffffffffffffffffffffffffffff1673ffffffffffffffffffffffffffffffffffffffff16815260200191505060405180910390f35b34801561074c57600080fd5b5061075561197c565b005b60018054600181600116156101000203166002900480601f0160208091040260200160405190810160405280929190818152602001828054600181600116156101000203166002900480156107ed5780601f106107c2576101008083540402835291602001916107ed565b820191906000526020600020905b8154815290600101906020018083116107d057829003601f168201915b505050505081565b610872826000836040518082805190602001908083835b602083101515610831578051825260208201915060208101905060208303925061080c565b6001836020036101000a0380198251168184511680821785525050505050509050019150509081526020016040518091039020611a8090919063ffffffff16565b5050565b600360149054906101000a900460ff1615151561089257600080fd5b6040805190810160405280600781526020017f6d616e61676572000000000000000000000000000000000000000000000000008152506108d233826107f5565b600073ffffffffffffffffffffffffffffffffffffffff168273ffffffffffffffffffffffffffffffffffffffff161415151561090e57600080fd5b81600260006101000a81548173ffffffffffffffffffffffffffffffffffffffff021916908373ffffffffffffffffffffffffffffffffffffffff1602179055507f5d108ca248943e98e1886bbc2c38beda701271994a14354258a11692b81b73cf82604051808273ffffffffffffffffffffffffffffffffffffffff1673ffffffffffffffffffffffffffffffffffffffff16815260200191505060405180910390a17f2477354bd379990c7dcca2ddb82e20d6a58fd61936184ba983ef4a7c152119c4600260009054906101000a900473ffffffffffffffffffffffffffffffffffffffff1673ffffffffffffffffffffffffffffffffffffffff166370a08231306040518263ffffffff167c0100000000000000000000000000000000000000000000000000000000028152600401808273ffffffffffffffffffffffffffffffffffffffff1673ffffffffffffffffffffffffffffffffffffffff168152602001915050602060405180830381600087803b158015610a9057600080fd5b505af1158015610aa4573d6000803e3d6000fd5b505050506040513d6020811015610aba57600080fd5b81019080805190602001909291905050506040518082815260200191505060405180910390a15050565b6000610b63836000846040518082805190602001908083835b602083101515610b225780518252602082019150602081019050602083039250610afd565b6001836020036101000a0380198251168184511680821785525050505050509050019150509081526020016040518091039020611a9990919063ffffffff16565b905092915050565b6040805190810160405280600581526020017f6f776e6572000000000000000000000000000000000000000000000000000000815250610bab33826107f5565b600073ffffffffffffffffffffffffffffffffffffffff168273ffffffffffffffffffffffffffffffffffffffff1614151515610be757600080fd5b610c26826040805190810160405280600781526020017f6d616e6167657200000000000000000000000000000000000000000000000000815250611af2565b5050565b60055481565b600360149054906101000a900460ff161515610c4b57600080fd5b6040805190810160405280600781526020017f6d616e6167657200000000000000000000000000000000000000000000000000815250610c8b33826107f5565b6000600360146101000a81548160ff0219169083151502179055507f1cdde67b72a90f19919ac732a437ac2f7a10fc128d28c2a6e525d89ce5cd9d3a60405160405180910390a150565b600060405180807f70726f64756374696f6e00000000000000000000000000000000000000000000815250600a019050604051809103902060001916826040518082805190602001908083835b602083101515610d475780518252602082019150602081019050602083039250610d22565b6001836020036101000a0380198251168184511680821785525050505050509050019150506040518091039020600019161415610fe2573073ffffffffffffffffffffffffffffffffffffffff1631610ea2600454600260009054906101000a900473ffffffffffffffffffffffffffffffffffffffff1673ffffffffffffffffffffffffffffffffffffffff166370a08231306040518263ffffffff167c0100000000000000000000000000000000000000000000000000000000028152600401808273ffffffffffffffffffffffffffffffffffffffff1673ffffffffffffffffffffffffffffffffffffffff168152602001915050602060405180830381600087803b158015610e5957600080fd5b505af1158015610e6d573d6000803e3d6000fd5b505050506040513d6020811015610e8357600080fd5b8101908080519060200190929190505050611c4390919063ffffffff16565b11151515610eaf57600080fd5b7f2477354bd379990c7dcca2ddb82e20d6a58fd61936184ba983ef4a7c152119c4600260009054906101000a900473ffffffffffffffffffffffffffffffffffffffff1673ffffffffffffffffffffffffffffffffffffffff166370a08231306040518263ffffffff167c0100000000000000000000000000000000000000000000000000000000028152600401808273ffffffffffffffffffffffffffffffffffffffff1673ffffffffffffffffffffffffffffffffffffffff168152602001915050602060405180830381600087803b158015610f8d57600080fd5b505af1158015610fa1573d6000803e3d6000fd5b505050506040513d6020811015610fb757600080fd5b81019080805190602001909291905050506040518082815260200191505060405180910390a16110ef565b7f21cb0d8274bbf272058d78b0ec3aa42a81f00faf1837677506ff68da72af64f085858585604051808573ffffffffffffffffffffffffffffffffffffffff1673ffffffffffffffffffffffffffffffffffffffff1681526020018473ffffffffffffffffffffffffffffffffffffffff1673ffffffffffffffffffffffffffffffffffffffff16815260200183815260200180602001828103825283818151815260200191508051906020019080838360005b838110156110b1578082015181840152602081019050611096565b50505050905090810190601f1680156110de5780820380516001836020036101000a031916815260200191505b509550505050505060405180910390a15b60019050949350505050565b600360149054906101000a900460ff1681565b6000600360149054906101000a900460ff1615151561112c57600080fd5b6040805190810160405280600581526020017f6f776e657200000000000000000000000000000000000000000000000000000081525061116c33826107f5565b3073ffffffffffffffffffffffffffffffffffffffff163191503373ffffffffffffffffffffffffffffffffffffffff166108fc839081150290604051600060405180830381858888f193505050501580156111cc573d6000803e3d6000fd5b507fa1c1e1d63bceb71e42cf7346aa03b605ad6d1ef79cbdd4affb1f24d126871e453383604051808373ffffffffffffffffffffffffffffffffffffffff1673ffffffffffffffffffffffffffffffffffffffff1681526020018281526020019250505060405180910390a17f5b380e44b2718e0f6646684aa0031a2fbe295724ea98c09a79273359ff478b573073ffffffffffffffffffffffffffffffffffffffff16316040518082815260200191505060405180910390a15050565b600360149054906101000a900460ff161515156112a657600080fd5b6040805190810160405280600781526020017f6d616e61676572000000000000000000000000000000000000000000000000008152506112e633826107f5565b6000821115156112f557600080fd5b816004819055507f730aaa630c08715de98c8479cbb90862050633938304e836c6fedf3462e614fc6004546040518082815260200191505060405180910390a15050565b60045481565b61134833611c7b565b151561135057fe5b565b600360009054906101000a900473ffffffffffffffffffffffffffffffffffffffff1681565b600360149054906101000a900460ff1615151561139457600080fd5b6040805190810160405280600781526020017f6d616e61676572000000000000000000000000000000000000000000000000008152506113d433826107f5565b816005819055507f052c2b9920e6350ca28019c9e8a20e8dc0f44ab5eadb0ac974a65f09ae3c975d6005546040518082815260200191505060405180910390a15050565b61142133611f2c565b151561142957fe5b565b6040805190810160405280600581526020017f6f776e657200000000000000000000000000000000000000000000000000000081525061146b33826107f5565b6114aa826040805190810160405280600781526020017f6d616e6167657200000000000000000000000000000000000000000000000000815250612295565b5050565b600081600073ffffffffffffffffffffffffffffffffffffffff16600360009054906101000a900473ffffffffffffffffffffffffffffffffffffffff1673ffffffffffffffffffffffffffffffffffffffff161415151561150f57600080fd5b600360009054906101000a900473ffffffffffffffffffffffffffffffffffffffff1673ffffffffffffffffffffffffffffffffffffffff16637c038fa1826040518263ffffffff167c0100000000000000000000000000000000000000000000000000000000028152600401808260001916600019168152602001915050602060405180830381600087803b1580156115a857600080fd5b505af11580156115bc573d6000803e3d6000fd5b505050506040513d60208110156115d257600080fd5b810190808051906020019092919050505073ffffffffffffffffffffffffffffffffffffffff163373ffffffffffffffffffffffffffffffffffffffff1614151561161c57600080fd5b600260009054906101000a900473ffffffffffffffffffffffffffffffffffffffff1673ffffffffffffffffffffffffffffffffffffffff1663be45fd628686611665876123e6565b6040518463ffffffff167c0100000000000000000000000000000000000000000000000000000000028152600401808473ffffffffffffffffffffffffffffffffffffffff1673ffffffffffffffffffffffffffffffffffffffff16815260200183815260200180602001828103825283818151815260200191508051906020019080838360005b838110156117085780820151818401526020810190506116ed565b50505050905090810190601f1680156117355780820380516001836020036101000a031916815260200191505b50945050505050602060405180830381600087803b15801561175657600080fd5b505af115801561176a573d6000803e3d6000fd5b505050506040513d602081101561178057600080fd5b810190808051906020019092919050505091507f8fb6aac58be817e65ad5b57c00119cb55155728b25f44fb48fe6e4e4f1e8ed58858585604051808473ffffffffffffffffffffffffffffffffffffffff1673ffffffffffffffffffffffffffffffffffffffff1681526020018381526020018260001916600019168152602001935050505060405180910390a1509392505050565b600360149054906101000a900460ff1615151561183257600080fd5b6040805190810160405280600781526020017f6d616e616765720000000000000000000000000000000000000000000000000081525061187233826107f5565b600073ffffffffffffffffffffffffffffffffffffffff168273ffffffffffffffffffffffffffffffffffffffff16141515156118ae57600080fd5b81600360006101000a81548173ffffffffffffffffffffffffffffffffffffffff021916908373ffffffffffffffffffffffffffffffffffffffff1602179055507fea4e249311d4fff2342feb8854867bfd2c1b2e6a502fd66ca29b57d3c510ce6782604051808273ffffffffffffffffffffffffffffffffffffffff1673ffffffffffffffffffffffffffffffffffffffff16815260200191505060405180910390a15050565b600260009054906101000a900473ffffffffffffffffffffffffffffffffffffffff1681565b600360149054906101000a900460ff1615151561199857600080fd5b600073ffffffffffffffffffffffffffffffffffffffff16600260009054906101000a900473ffffffffffffffffffffffffffffffffffffffff1673ffffffffffffffffffffffffffffffffffffffff16141515156119f657600080fd5b6040805190810160405280600781526020017f6d616e6167657200000000000000000000000000000000000000000000000000815250611a3633826107f5565b6001600360146101000a81548160ff0219169083151502179055507fd1dcd00534373f20882b79e6ab6875a5c358c5bd576448757ed50e63069ab51860405160405180910390a150565b611a8a8282611a99565b1515611a9557600080fd5b5050565b60008260000160008373ffffffffffffffffffffffffffffffffffffffff1673ffffffffffffffffffffffffffffffffffffffff16815260200190815260200160002060009054906101000a900460ff16905092915050565b611b6f826000836040518082805190602001908083835b602083101515611b2e5780518252602082019150602081019050602083039250611b09565b6001836020036101000a03801982511681845116808217855250505050505090500191505090815260200160405180910390206125ae90919063ffffffff16565b7fbfec83d64eaa953f2708271a023ab9ee82057f8f3578d548c1a4ba0b5b7004898282604051808373ffffffffffffffffffffffffffffffffffffffff1673ffffffffffffffffffffffffffffffffffffffff16815260200180602001828103825283818151815260200191508051906020019080838360005b83811015611c04578082015181840152602081019050611be9565b50505050905090810190601f168015611c315780820380516001836020036101000a031916815260200191505b50935050505060405180910390a15050565b600080831415611c565760009050611c75565b8183029050818382811515611c6757fe5b04141515611c7157fe5b8090505b92915050565b6000806000600360149054906101000a900460ff161515611c9b57600080fd5b600073ffffffffffffffffffffffffffffffffffffffff168473ffffffffffffffffffffffffffffffffffffffff1614151515611cd757600080fd5b600260009054906101000a900473ffffffffffffffffffffffffffffffffffffffff1673ffffffffffffffffffffffffffffffffffffffff166370a08231856040518263ffffffff167c0100000000000000000000000000000000000000000000000000000000028152600401808273ffffffffffffffffffffffffffffffffffffffff1673ffffffffffffffffffffffffffffffffffffffff168152602001915050602060405180830381600087803b158015611d9457600080fd5b505af1158015611da8573d6000803e3d6000fd5b505050506040513d6020811015611dbe57600080fd5b81019080805190602001909291905050509150611de660045483611c4390919063ffffffff16565b90503073ffffffffffffffffffffffffffffffffffffffff163181101515611e0d57600080fd5b8373ffffffffffffffffffffffffffffffffffffffff166108fc611e3c6005548461260c90919063ffffffff16565b9081150290604051600060405180830381858888f19350505050158015611e67573d6000803e3d6000fd5b507f722c0d2ab57adc217135fe1973477c7ffe7e17ca38d73e13753618721a5fa7898483604051808373ffffffffffffffffffffffffffffffffffffffff1673ffffffffffffffffffffffffffffffffffffffff1681526020018281526020019250505060405180910390a17f5b380e44b2718e0f6646684aa0031a2fbe295724ea98c09a79273359ff478b573073ffffffffffffffffffffffffffffffffffffffff16316040518082815260200191505060405180910390a1600192505050919050565b6000806000600360149054906101000a900460ff161515611f4c57600080fd5b346000101515611f5b57600080fd5b600073ffffffffffffffffffffffffffffffffffffffff168473ffffffffffffffffffffffffffffffffffffffff1614151515611f9757600080fd5b60045434811515611fa457fe5b06915060055482141515611fb757600080fd5b611fcc6004543461262590919063ffffffff16565b9050600260009054906101000a900473ffffffffffffffffffffffffffffffffffffffff1673ffffffffffffffffffffffffffffffffffffffff166370a08231306040518263ffffffff167c0100000000000000000000000000000000000000000000000000000000028152600401808273ffffffffffffffffffffffffffffffffffffffff1673ffffffffffffffffffffffffffffffffffffffff168152602001915050602060405180830381600087803b15801561208b57600080fd5b505af115801561209f573d6000803e3d6000fd5b505050506040513d60208110156120b557600080fd5b8101908080519060200190929190505050811015156120d357600080fd5b600260009054906101000a900473ffffffffffffffffffffffffffffffffffffffff1673ffffffffffffffffffffffffffffffffffffffff1663a9059cbb85836040518363ffffffff167c0100000000000000000000000000000000000000000000000000000000028152600401808373ffffffffffffffffffffffffffffffffffffffff1673ffffffffffffffffffffffffffffffffffffffff16815260200182815260200192505050602060405180830381600087803b15801561219857600080fd5b505af11580156121ac573d6000803e3d6000fd5b505050506040513d60208110156121c257600080fd5b810190808051906020019092919050505092507f9a75ad23c13bdc626fd85ca9084f6d47d4d1c527c6ae1d1d1145a43ed41211b38482604051808373ffffffffffffffffffffffffffffffffffffffff1673ffffffffffffffffffffffffffffffffffffffff1681526020018281526020019250505060405180910390a17f5b380e44b2718e0f6646684aa0031a2fbe295724ea98c09a79273359ff478b573073ffffffffffffffffffffffffffffffffffffffff16316040518082815260200191505060405180910390a15050919050565b612312826000836040518082805190602001908083835b6020831015156122d157805182526020820191506020810190506020830392506122ac565b6001836020036101000a038019825116818451168082178552505050505050905001915050908152602001604051809103902061263b90919063ffffffff16565b7fd211483f91fc6eff862467f8de606587a30c8fc9981056f051b897a418df803a8282604051808373ffffffffffffffffffffffffffffffffffffffff1673ffffffffffffffffffffffffffffffffffffffff16815260200180602001828103825283818151815260200191508051906020019080838360005b838110156123a757808201518184015260208101905061238c565b50505050905090810190601f1680156123d45780820380516001836020036101000a031916815260200191505b50935050505060405180910390a15050565b606060006060600091505b60208210801561245557506000848360208110151561240c57fe5b1a7f0100000000000000000000000000000000000000000000000000000000000000027f0100000000000000000000000000000000000000000000000000000000000000900414155b15612465578160010191506123f1565b816040519080825280601f01601f1916602001820160405280156124985781602001602082028038833980820191505090505b509050600091505b602082108015612525575060007f01000000000000000000000000000000000000000000000000000000000000000284836020811015156124dd57fe5b1a7f0100000000000000000000000000000000000000000000000000000000000000027effffffffffffffffffffffffffffffffffffffffffffffffffffffffffffff191614155b156125a457838260208110151561253857fe5b1a7f010000000000000000000000000000000000000000000000000000000000000002818381518110151561256957fe5b9060200101907effffffffffffffffffffffffffffffffffffffffffffffffffffffffffffff1916908160001a9053508160010191506124a0565b8092505050919050565b60018260000160008373ffffffffffffffffffffffffffffffffffffffff1673ffffffffffffffffffffffffffffffffffffffff16815260200190815260200160002060006101000a81548160ff0219169083151502179055505050565b600082821115151561261a57fe5b818303905092915050565b6000818381151561263257fe5b04905092915050565b60008260000160008373ffffffffffffffffffffffffffffffffffffffff1673ffffffffffffffffffffffffffffffffffffffff16815260200190815260200160002060006101000a81548160ff02191690831515021790555050505600a165627a7a72305820f9b57cf69bdc3f1ab1f9e562288c3a210e6d4fb855076d616f19113dfbc771580029",
  "source": "pragma solidity ^0.4.23;\n\nimport \"openzeppelin-solidity/contracts/math/SafeMath.sol\";\nimport \"./GamblingHall.sol\";\nimport \"./token/CasinoToken.sol\";\nimport \"./Casino.sol\";\n\n/**\n * @title NewVegas\n * @author mariogastegger\n * @dev The casino.\n */\ncontract NewVegas is Casino {\n    using SafeMath for uint256;\n\n    /*\n     * Events.\n     */\n\n    /*\n     * Fields.\n     */\n\n\n    /**\n     * @param _tokenAddress the address of the initial token.\n     * @param _gamingHallAddress the address of the initial gaming hall.\n     * @param _tokenPrice the initial token price.\n     * @param _exchangeFee the initial fee for exchanging ether/tokens.\n     */\n    //TEST:\n    constructor(address _tokenAddress, address _gamingHallAddress, uint _tokenPrice, uint _exchangeFee)\n    Casino(_tokenAddress, _gamingHallAddress, _tokenPrice, _exchangeFee)\n    public payable {\n        require(token.balanceOf(address(this)).mul(tokenPrice) <= msg.value);//ensure winnings can be cashed out.\n\n        name = \"New Vegas\";\n    }\n\n    /*\n     * Modifiers.\n     */\n\n    /*\n     * Business function.\n     */\n\n    /**\n     * @dev Transfers tokens to the customer.\n     * @dev requires a fee.\n     */\n    //TEST:\n    function buy() external payable {\n        assert(buyInternal(msg.sender));\n    }\n\n    /**\n     * @dev Returns ether for the customer tokens.\n     * @dev requires a fee.\n     */\n    //TEST:\n    function cashout() external payable {\n        assert(cashoutInternal(msg.sender));\n    }\n\n\n    /*\n     * Maintenance functions.\n     */\n}\n",
  "sourcePath": "/home/mariogastegger/1_private/study/repository/SC_Ass0.3/dapp/contracts/NewVegas.sol",
  "compiler": {
    "name": "solc",
    "version": "0.4.24+commit.e67f0147.Emscripten.clang"
  },
  "schemaVersion": "2.0.0",
  "updatedAt": "2018-06-19T12:08:17.238Z"
}